:020000040800F2
:1000000000000520D9A70008A10B0008A30B0008D9
:10001000A50B0008A70B0008A90B000800000000B2
:10002000000000000000000000000000AB0B000812
:10003000AD0B000800000000AF0B0008B10B00087A
:1000400029A8000829A8000829A8000829A800084C
:1000500029A8000829A8000829A8000829A800083C
:1000600029A8000829A8000829A8000829A800082C
:1000700029A8000829A8000829A8000829A800081C
:1000800029A8000829A8000829A8000829A800080C
:1000900029A8000829A8000829A8000829A80008FC
:1000A00029A8000829A8000829A8000829A80008EC
:1000B00029A8000829A8000829A8000829A80008DC
:1000C00029A8000829A8000829A8000829A80008CC
:1000D00029A8000829A8000829A8000829A80008BC
:1000E00029A8000829A8000829A8000829A80008AC
:1000F00029A8000829A8000829A8000829A800089C
:1001000029A8000829A8000829A8000829A800088B
:1001100029A8000829A8000829A8000829A800087B
:1001200029A8000829A8000829A8000829A800086B
:1001300029A8000829A8000829A8000829A800085B
:1001400029A8000829A8000829A8000829A800084B
:1001500029A8000829A8000829A8000829A800083B
:1001600029A8000829A8000829A8000829A800082B
:1001700029A8000829A8000829A8000800000000F4
:1001800029A8000829A8000829A8000829A800080B
:1001900029A8000829A8000829A8000829A80008FB
:1001A00029A8000829A8000829A8000829A80008EB
:1001B00029A8000829A8000829A8000829A80008DB
:0801C00029A8000829A8000885
:1001D00010B5054C237833B9044B13B10448AFF381
:1001E00000800123237010BD780000200000000073
:1001F00000BA000808B5034B1BB103490348AFF32D
:10020000008008BD000000007C00002000BA00084B
:1002100001F0FF01102A2BDB10F0070F08D010F8B7
:10022000013B013A8B422DD010F0070F42B3F6D1BB
:10023000F0B441EA012141EA014122F007047FF0D4
:1002400000070023F0E80256083C85EA010586EA2B
:10025000010685FA47F5A3FA87F586FA47F6A5FA67
:1002600087F68EB9EED1F0BC01F0FF0102F0070273
:1002700032B110F8013B013A83EA010313B1F8D11E
:100280000020704701387047002D06BF35460338FF
:10029000073815F0010F07D1013015F4807F02BF38
:1002A000013015F4C03F0130F0BC0138704700BF89
:1002B00053B94AB9002908BF00281CBF4FF0FF31CD
:1002C0004FF0FF3000F074B9ADF1080C6DE904CEC9
:1002D00000F006F8DDF804E0DDE9022304B0704721
:1002E0002DE9F047089D04468E46002B4DD18A42E9
:1002F000944669D9B2FA82F252B101FA02F3C2F11C
:10030000200120FA01F10CFA02FC41EA030E9440AC
:100310004FEA1C48210CBEFBF8F61FFA8CF708FBCD
:1003200016E341EA034306FB07F199420AD91CEBA5
:10033000030306F1FF3080F01F81994240F21C81D7
:10034000023E63445B1AA4B2B3FBF8F008FB10331F
:1003500044EA034400FB07F7A7420AD91CEB040454
:1003600000F1FF3380F00A81A74240F20781644424
:10037000023840EA0640E41B00261DB1D4400023A9
:10038000C5E900433146BDE8F0878B4209D9002D0D
:1003900000F0EF800026C5E9000130463146BDE897
:1003A000F087B3FA83F6002E4AD18B4202D3824201
:1003B00000F2F980841A61EB030301209E46002DB0
:1003C000E0D0C5E9004EDDE702B9FFDEB2FA82F205
:1003D000002A40F09280A1EB0C014FEA1C471FFA63
:1003E0008CFE0126200CB1FBF7F307FB131140EA4A
:1003F00001410EFB03F0884208D91CEB010103F117
:10040000FF3802D2884200F2CB804346091AA4B2D8
:10041000B1FBF7F007FB101144EA01440EFB00FEAC
:10042000A64508D91CEB040400F1FF3102D2A64511
:1004300000F2BB800846A4EB0E0440EA03409CE7B0
:10044000C6F12007B34022FA07FC4CEA030C20FA5D
:1004500007F401FA06F31C43F9404FEA1C4900FA7D
:1004600006F3B1FBF9F8200C1FFA8CFE09FB1811FA
:1004700040EA014108FB0EF0884202FA06F20BD96D
:100480001CEB010108F1FF3A80F08880884240F2BD
:100490008580A8F102086144091AA4B2B1FBF9F001
:1004A00009FB101144EA014100FB0EFE8E4508D9FC
:1004B0001CEB010100F1FF346CD28E456AD9023881
:1004C000614440EA0840A0FB0294A1EB0E01A14266
:1004D000C846A64656D353D05DB1B3EB080261EBD4
:1004E0000E0101FA07F722FA06F3F1401F43C5E9AE
:1004F000007100263146BDE8F087C2F12003D840E4
:100500000CFA02FC21FA03F3914001434FEA1C4725
:100510001FFA8CFEB3FBF7F007FB10360B0C43EA17
:10052000064300FB0EF69E4204FA02F408D91CEBC7
:10053000030300F1FF382FD29E422DD902386344C5
:100540009B1B89B2B3FBF7F607FB163341EA034165
:1005500006FB0EF38B4208D91CEB010106F1FF38B4
:1005600016D28B4214D9023E6144C91A46EA0046AB
:1005700038E72E46284605E70646E3E61846F8E63D
:100580004B45A9D2B9EB020864EB0C0E0138A3E786
:100590004646EAE7204694E74046D1E7D0467BE767
:1005A000023B614432E7304609E76444023842E7DF
:1005B000704700BF0020704708B501228021024823
:1005C00002F0C6FA08BD00BF0004024010B50C4C92
:1005D0004FF48072012120460AF06AF9AE2323709D
:1005E00000236370EA2284F8FF20064A13804FF448
:1005F000807221460448006807F030FC10BD00BF3F
:1006000098000020960000209801002038B515467B
:100610000AB1284638BD0C464021204604F06CF84B
:100620000021204604F09EF80949204604F0B8F85D
:100630000849204604F09AF80749204604F0CAF811
:1006400000220649204604F0DFF8FFF7BFFFE0E78D
:10065000AD07000805070008B9050008B505000842
:1006600010B50E4C0021206804F07CF800212068B1
:1006700004F096F80021206804F078F80021206842
:1006800004F0A8F800221146206804F0BDF82068A4
:1006900004F0C2FC0023236010BD00BF98010020BD
:1006A00008B5134B1B686BB11249134B0B60134B0E
:1006B00041F2BA320E48006804F006F910F10A0F50
:1006C00013D008BD04F0FEFB094B18600028EBD1E5
:1006D0000146012005F09CF9054B00221A60012219
:1006E0008021074802F034FADEE7FFF7B9FFE8E7B8
:1006F000980100209C010020C0A801C00D06000840
:100700000004024070B584B05AB108461C46154634
:100710005BB1118903F09CFF284603F091FB204652
:100720001EE0FFF79DFF00201AE0118903F090FF03
:100730001B4E30886A8969681A4B03EB00200AF067
:10074000A9F86B89328813449BB23380B3F5807F5C
:1007500008D0B3F5807F1DD8284603F071FB2046F2
:1007600004B070BD0F4A5278012AF2D100223280C3
:100770000C4A917853799079D6790296019000933A
:100780001379D27801F5FA6107480AF099F8FFF772
:1007900067FFE1E7024B00221A80FFF761FFDBE70A
:1007A000940000209800002018BA000808B50F4BEC
:1007B00019880A4492B21A80FF2A0BD9B2F5807FB9
:1007C0000DD9012280210A4802F0C2F9FFF748FF43
:1007D000002008BD074B186808F000F9F8E74FF44F
:1007E0008041034802F0BAF9F2E700BF960000200A
:1007F000000402409801002008B5FFF751FF08BD32
:1008000008B590F82D3013F0040F06D001224FF4F4
:100810008041054802F09CF908BD00224FF4804158
:10082000014802F095F9F7E70004024072B6FEE7CE
:1008300000B5B5B03022002128A80AF039F800210F
:1008400023912491259126912791842202A80AF0D0
:100850002FF802F08DF9254B1A6C42F080521A6481
:100860001B6C03F080530093009B214A136823F410
:10087000404343F480431360136803F440430193FF
:10088000019B012328934FF4A023299302232E9345
:100890004FF480022F9204223092482231923293F8
:1008A0000323339328A801F021FAC8B90F23239317
:1008B00002212491002325934FF4805226922793FE
:1008C00023A801F097FC68B90A4B02930023159303
:1008D000219302A801F06AFD30B935B05DF804FB40
:1008E000FFF7A4FFFFF7A2FFFFF7A0FF00380240C9
:1008F000007000400001200008B502F0C3F9FFF7C6
:1009000097FF00F019F800F095F800F0E5F800F016
:100910007DF900F00BFA064800F004FC054B1B784B
:10092000002BF6D0034B00221A70FFF765FFF0E7AB
:100930003C0600202C060020F0B58DB00024079462
:10094000089409940A940B94364B1A6B42F00402F3
:100950001A631A6B02F004020192019A1A6B42F0B8
:1009600080021A631A6B02F080020292029A1A6BDA
:1009700042F001021A631A6B02F001020392039A19
:100980001A6B42F002021A631A6B02F0020204921E
:10099000049A1A6B42F008021A631A6B02F00802FA
:1009A0000592059A1A6B42F040021A631B6B03F022
:1009B00040030693069B1C4F22464FF48141384664
:1009C00002F0C6F8194D22464021284602F0C0F830
:1009D0004FF4005307934FF488130893099407A921
:1009E000134801F0B9FF4FF481430793012608969D
:1009F00009940A9407A9384601F0AEFF40230793F3
:100A0000089609940A9407A9284601F0A5FF8023B7
:100A100007930894099407A9284601F09DFF0DB09B
:100A2000F0BD00BF00380240000402400018024040
:100A30000008024008B50B480B4B03604FF4E1334C
:100A4000436000238360C36003610C2242618361C1
:100A5000C3610362436202F0D2FB00B908BDFFF735
:100A6000E5FEFBE7A00100200048004000B589B08A
:100A70000023039304930593069307930268144B92
:100A80009A4202D009B05DF804FB03F5F8331A6C02
:100A900042F480221A641A6C02F480220192019AB4
:100AA0001A6B42F008021A631B6B03F008030293EF
:100AB000029B4FF440730393022304930323069392
:100AC0000723079303A9034801F046FFDAE700BFB5
:100AD00000480040000C024008B50C484FF0A0430D
:100AE0000360062343600222C26000230361826127
:100AF0000122C26103624362C262036302F0B0FB7F
:100B000000B908BDFFF792FEFBE700BF24020020FA
:100B100030B589B00023039304930593069307939C
:100B20000368B3F1A04F01D009B030BD1A4C236B5C
:100B300043F001032363236B03F001030093009B45
:100B40004FF4E853039302230493032306930A23E9
:100B50000793124D03A9284601F0FEFE4FF40073DF
:100B6000039300230493059303A9284601F0F4FEA0
:100B7000636B43F080036363636B03F08003019353
:100B8000019B636C43F480436364636C03F48043B0
:100B90000293029BC8E700BF0038024000000240F9
:100BA000FEE7FEE7FEE7FEE7FEE7704770477047A7
:100BB00008B502F073F8074A13680133136041F275
:100BC0008832934205D9044B01221A70014B00224E
:100BD0001A6008BD280600202C06002082B00A4BAF
:100BE0001A6C42F080521A641A6C02F08052009221
:100BF000009A5A6C42F480425A645B6C03F480435E
:100C00000193019B02B0704700380240F0B585B0F7
:100C10003C4FC0203870A82179700123BB70FE22A0
:100C2000FA70394EFF2232707270B2700024F47084
:100C3000364D28706970AB70EB7004F069FE3A783D
:100C40007B781B0443EA0263BA7843EA0223F9780B
:100C50000B431A0202F47F0242EA0162190A01F40C
:100C60007F410A4342EA136329490B603278737863
:100C70001B0443EA0263B27843EA0223F078034399
:100C80001A0202F47F0242EA0062180A00F47F406E
:100C9000024342EA13631F4A136028786B781B04EF
:100CA00043EA0063A87843EA0023ED782B43180257
:100CB00000F47F0040EA05601D0A05F47F452843E3
:100CC00040EA1360144B1860144D15480290154803
:100CD00001900094284602F089FE284602F018FF91
:100CE00095F82D3013F0040F08D0284602F016FFB7
:100CF0000D490A4802F092FF05B0F0BD074802F026
:100D00002BFFF5E7340600203806002030060020CF
:100D10007406002078060020700600203C060020A3
:100D200061370008D51000088911000808B503488C
:100D300000F0C0F908F03EF908BD00BF3C060020F5
:100D40002DE9F047324800F00DFD00285CD1304B12
:100D5000998FD3F8408029B94FF0000A2C4B1B6BB8
:100D600000213AE04FF4C17203F0CCF8824600282B
:100D7000F4D0274B1F6B8146002421E0D9F80400F2
:100D800040F2F452121B08EB0401304409F082FDDA
:100D9000FF68D7F80880A5F2F452361B06F2F45625
:100DA0000024A51840F2F4539D42E7D8D9F8040076
:100DB00008EB0401304409F06DFDD9F800902C4691
:100DC000B9F1000FCAD0B9F80A200026E9E71A687D
:100DD00042F000421A60DB6801310D4A926B8A4290
:100DE000F5D80B4B00229A631B6803F580525269B9
:100DF00012F0800F05D003F5805380225A61002243
:100E00009A605046BDE8F0874FF0000AF9E700BF4E
:100E1000203700202DE9F84F8B462B4BDE6AD6F8A1
:100E200008A000242746BBF1000F32D03368002B06
:100E300035DBBBF80A90002504EB090840F2F453B7
:100E4000984519D9DBF8041040F2F452121B2944DA
:100E50000AEB040009F01EFDF6683368002B21DB65
:100E6000D6F808A0A8F2F4592D1B05F2F4553F1B43
:100E700007F2F4570024DFE7DBF804104A46294460
:100E80000AEB040009F006FD4F44DBF800B04446CD
:100E9000C9E739460C4800F0CFFB002004E06FF0B2
:100EA000070001E06FF00700074B1B6803F5805255
:100EB000526912F0200F05D003F5805320225A61A9
:100EC00000225A60BDE8F88F2037002030B583B08B
:100ED00004462E482E4B0360012343604FF48043A9
:100EE00083604FF40063C360002303828DF80030F9
:100EF00080228DF80120E1228DF802208DF8033048
:100F00008DF804308DF80530C0F814D08361C361CA
:100F10004FF40003036200F0E3FC28B994F82D308D
:100F200043F0040384F82D30184D0423194A1A495C
:100F3000284600F002FB0423184A1949284600F00D
:100F40003CFB062384F82C306B691A7884F8262041
:100F50005A7884F827209A7884F82820DA7884F858
:100F600029201A7984F82A205B7984F82B3040F202
:100F7000DC53A38494F82D3043F00A0384F82D3019
:100F8000284600F0D7FD03B030BD00BF2037002059
:100F900000800240501F0020FC0600208007002037
:100FA0007C060020F0B58DB00023079308930993C9
:100FB0000A930B9302683A4B9A4201D00DB0F0BDF0
:100FC000A3F590431A6B42F000721A631A6B02F099
:100FD00000720092009A1A6B42F080621A631A6BD8
:100FE00002F080620192019A1A6B42F000621A6369
:100FF0001A6B02F000620292029A1A6B42F004022B
:101000001A631A6B02F004020392039A1A6B42F0FD
:1010100001021A631A6B02F001020492049A1A6B1D
:1010200042F002021A631A6B02F002020592059A5C
:101030001A6B42F040021A631B6B03F040030693E5
:10104000069B322307930226089603250A950B2454
:101050000B9407A9134801F07FFC86230793089699
:10106000002709970A950B9407A90F4801F074FC13
:101070004FF400530793089609970A950B9407A914
:101080000A4801F069FC4FF420530793089609972A
:101090000A950B9407A9064801F05EFC8EE700BF95
:1010A00000800240000802400000024000040240AC
:1010B0000018024038B50446FFF742FE20B105464D
:1010C00023692146984700B938BD284602F0B8FE8A
:1010D000FAE7000010B5044670B1732384F82E308F
:1010E000742384F82F30084B6361084BA3612046BA
:1010F000FFF7ECFE002010BD054B40F2062205492B
:10110000054809F0DDFBE8E729A40008150E0008F2
:1011100038BA000854BA000864BA000808B501F0EB
:10112000C9FD08BD10B582B004460023019301F04B
:10113000C1FD134B1B68C31AC72B01D802B010BDE9
:1011400001F0B8FD0E4B186001AA01210D4800F016
:1011500050FB019B03F00403019394F82D2012F03F
:10116000040F00D143B912F0040FE7D0002BE5D1F2
:10117000204602F035FDE1E7204602F00DFDDDE7F7
:101180007C0700202037002030B583B004460023C0
:101190000193009390F82D3013F0040F51D02B4B96
:1011A0005B68002B35D04FF480520021274800F0B7
:1011B0005CFB01F07FFD01906A460121234800F0AD
:1011C00018FB01F077FD019BC31AB3F57A7F20D895
:1011D000009B13F0200FEFD06A4610211B4800F04F
:1011E00008FB009B13F0040F0AD0184A4FF400616B
:1011F000D16013F0020F07D0144B00229A6013E065
:10120000124A0021D160F4E7104B4FF480429A60FB
:101210000AE00E48C268C2F3CF028368C3F34F03EB
:101220001A43002100F021FB084D0021284600F060
:10123000C5FC284600F07EFC2046FFF7E1FA03B02B
:1012400030BD024800F098FCF6E700BF20370020D0
:101250005079137943EA002307480B50D0789378EC
:101260001B0443EA0063507843EA002312781343D7
:10127000024A8B50704700BF4080024044800240C9
:10128000036803F580539A6942F400529A617047EB
:10129000036803F580539A6922F400529A617047FB
:1012A000036803F580539A6942F002029A6170471D
:1012B000036803F580539A6922F002029A6170472D
:1012C0002DE9F041AEB0054629B14FF40063C3608B
:1012D0004FF480438360002311931293139314936C
:1012E00015931693EB69002B40F0A3804FF48063B5
:1012F00017934FF400731893002419941A941B94B5
:101300001C941D9440271E971F942094219422948E
:10131000239424942594269480262796289429940F
:101320002A942B942C942D9429680B68464A1A40D1
:10133000AB68E86803431798034343F4007313430F
:101340000B602B68D3F80080012001F0B9FC2B68FA
:10135000C3F800802B685F602B685F68012001F094
:10136000AFFC2B685F602B689C602B68DC602A6890
:10137000936923F0BE031B041B0C334393612B685A
:101380009F69012001F09CFC2B689F612B68DC6148
:101390002B68DF69012001F093FC2B68DF61019469
:1013A0004FF00073029303944FF4001204920594DB
:1013B000069407940894042209920A934FF4803308
:1013C0000B934FF480030C934FF400530D930E9640
:1013D0000F9410942B6803F580539A691B491140B0
:1013E0001B4A0A439A612B6803F580539C690120CC
:1013F00001F066FC2B6803F580539C612B6803F5B4
:101400008053144A1A602B6803F580531C6801202E
:1014100001F056FC2B6803F580531C60AB69012B6F
:101420000AD06A6900212846FFF712FF2EB0BDE8F6
:10143000F081002317935CE72B6803F58053D9698B
:10144000054A0A43DA61ECE70F8120FF233FDEF80B
:10145000040020028020C1024000010010B582B0CB
:101460000446002301930268136843F008031360E5
:1014700003681B680193012001F022FC2368019A94
:101480001A6002B010BD10B582B00446002301936B
:101490000268136843F00403136003681B68019338
:1014A000012001F00DFC2368019A1A6002B010BD02
:1014B00010B582B0044600230193036803F58053FE
:1014C0009A6942F480129A61036803F580539B691C
:1014D0000193012001F0F4FB2368019A03F5805386
:1014E0009A6102B010BD10B582B00446002301938A
:1014F0000268136823F00403136003681B680193F8
:10150000012001F0DDFB2368019A1A6002B010BDD2
:1015100010B582B00446002301930268136823F0DB
:101520000803136003681B680193012001F0C8FBE6
:101530002368019A1A6002B010BD30B590F845409A
:10154000012C38D0012480F84540022480F8444022
:10155000C1624FF0000C03E0CEF80C100CF1010C4E
:101560009C451CD24FEA4C1501EB4C1E4FF48014E5
:101570004C5140F2F45404FB0C24CEF80840C469EA
:101580001CB94C5944F440044C515C1E6445E3D9E9
:101590000CF1010401EB4414CEF80C40DEE70368C3
:1015A00003F580531961012380F84430002380F84B
:1015B0004530184630BD0220FCE730B590F8454074
:1015C000012C36D0012480F84540022480F84440A4
:1015D00081624FF0000C03E0CEF80C100CF1010C0E
:1015E0009C451AD24FEA4C1401EB4C1E4FF00045BB
:1015F0000D5144F2F454CEF8044040F2F45404FB8C
:101600000C24CEF808405C1E6445E5D90CF10104B9
:1016100001EB4414CEF80C40E0E7036803F5805377
:10162000D960012380F84430002380F84530184603
:1016300030BD0220FCE7000090F84530012B00F09F
:101640008A80012380F84530022380F84430C9B1F4
:10165000C36A1A68002A1DDB10B440F2F4529142AA
:1016600020D93E4AA2FB012C4FEA9C2C40F2F452B6
:1016700002FB1C120AB10CF1010CBCF1010F11D0DC
:1016800000234AE0012380F84430002280F84520FE
:1016900018467047122380F84430002380F8453004
:1016A000012070471A6842F040521A60C36AC1F3C1
:1016B0000C015960C26A136843F000431360C36AA7
:1016C000DB68C362036803F58052526912F0040FAD
:1016D00008D003F5805304225A61036803F5805350
:1016E00000225A60012380F84430002380F84530FE
:1016F00018465DF8044B7047C26A40F2F4545460D7
:101700000CF1FF329A4217D0C46A226842F00042BC
:101710002260C26AD268C26201339C45D2D9C46ACF
:10172000226822F040522260002BE5D1C46A226870
:1017300042F080522260DFE7C46A226842F0005221
:101740002260074A02FB0C1202F2F452C46AC2F38E
:101750000C026260D8E70220704700BF0BB002ACF9
:101760000CFAFFFF90F84530012B40D0012380F8A0
:101770004530022380F84430836A1A68002A0EDB61
:101780001A6812F4807F12D11A6812F4007F28D0F0
:1017900003630022426301228263DB6883620123C8
:1017A00080F84430002280F8452018467047826B4C
:1017B00001328263012A12D043631A68C2F30D42D8
:1017C000043AC263026B92680264DB68836201239D
:1017D00080F84430002380F8453018467047036392
:1017E000EAE7826B01328263DB688362D7E702201B
:1017F0007047F8B590F84430DBB2822B33D0054601
:101800001646822380F844300068026902F01C0208
:101810002B8ADB029BB213438C0104F4F8641C4353
:1018200044F00104046101F045FA074601E02B6829
:101830001C6914F0010F0DD001F03CFAC31BB3F585
:10184000803FF4D3012385F84430002385F84530E8
:10185000032007E02B685B699BB23360012385F8A6
:1018600044300020F8BD0220FCE790F84430DBB2A1
:10187000422B32D070B50546422380F844300668CA
:10188000306900F01C002B8ADB029BB203438C0101
:1018900004F4F8641C4344F0030492B272612B68B0
:1018A0001C6101F007FA064601E02B681C6914F080
:1018B000010F0DD001F0FEF9831BB3F5803FF4D387
:1018C000012385F84430002385F84530032003E0E8
:1018D000012385F84430002070BD022070470000CD
:1018E00070B582B000230193002800F00C810446FB
:1018F00090F84430002B32D0844B5A6C42F4804232
:101900005A645B6C03F480430093009B804B5A68DD
:1019100022F400025A605A68216A0A435A60236816
:1019200003F580531A6842F001021A6001F0C2F90F
:101930000546236803F58052126812F0010F13D098
:1019400001F0B8F9401BB0F5FA7FF2D9032584F80D
:101950004450002384F84530284602B070BD80F81A
:101960004530FFF71FFBC7E71D6925F01C0500F098
:10197000F7FC684B0344684A934255D245F008058A
:1019800023681D614FF4004200212046FFF76DFFE0
:101990000546002860D1FF2001F092F96368002B12
:1019A00000F0918001F086F9064601AA0121204647
:1019B000FFF71FFF01F07EF9801B41F28833984248
:1019C00052D8019B13F0040FEFD04FF48052002146
:1019D0002046FFF74AFF002852D101F06BF9064676
:1019E00001AA01212046FFF704FF01F063F9801BE3
:1019F00041F2883398424BD8019B13F0200FEFD06F
:101A000001AA10212046FFF7F4FE00284CD1019BCB
:101A100013F0040F50D04FF40062E26013F0020F95
:101A20004DD00023A3605EE03C4B03443C4A93420C
:101A300002D845F00C05A3E73A4B03443A4A9342D7
:101A40009ED33A4B03443A4A934202D845F00405E8
:101A500096E745F0100593E701212046FFF730FC9B
:101A6000012584F8445077E701212046FFF728FC40
:101A7000012384F84430002384F8453003256BE7C4
:101A800001212046FFF71CFC012584F8445063E740
:101A900001212046FFF714FC012384F84430002381
:101AA00084F84530032557E701212046FFF708FC5D
:101AB000012584F844504FE70022E260AEE74FF47E
:101AC0008043A3600FE0E268C2F3CF02A368C3F3D0
:101AD0004F031A4300212046FFF7C7FE58B940F6CE
:101AE000FF7001F0EDF800212046FFF7E9FB01232C
:101AF00084F8443030E701212046FFF7E1FB01255F
:101B000084F8445028E7012526E700BF003802404A
:101B10000038014000D3CEFEC0E1E40040F1E9FD11
:101B20003F787D0100796CFC005A6202001F0AFABE
:101B30007FF0FA0238B590F84530012B1AD00446F0
:101B4000012580F84550022380F84430FFF786FCD9
:101B50002046FFF798FC2046FFF7AAFC2046FFF737
:101B60008FFB2046FFF79CFB84F84450002084F84C
:101B7000450038BD0220FCE738B590F84530012B10
:101B80001AD00446012580F84550022380F84430DD
:101B9000FFF77EFB2046FFF78BFB2046FFF7A3FCF9
:101BA0002046FFF785FC2046FFF7B2FC84F844503E
:101BB000002084F8450038BD0220FCE790F845304D
:101BC000012B00F08E8070B505460C46012380F88D
:101BD0004530022380F84430002971D00268136830
:101BE00041491940236860680343A0680343E068E3
:101BF0000343A86803432069034360690343E8681B
:101C00000343A0690343E0690343206A0343606A16
:101C10000343A06A03430B4313602B681E68012033
:101C200001F04EF82B681E60E36A226B1343626B6F
:101C30001343A26B1343E26B1343226C1343626C96
:101C40001343A16C2A680B4353602B685E68012024
:101C500001F036F82B685E602B68E26C9A602B68A6
:101C6000226DDA6029688A6922F0BE021204120C21
:101C7000606DA36D43EA0043E06D0343206E0343B0
:101C8000606E0343A06E034313438B612B689E6910
:101C9000012001F015F82B689E61E36E216F2A6820
:101CA0000B43D3612B68DC69012001F009F82B6834
:101CB000DC61012385F84430002085F8450070BDC3
:101CC00001680A6822F490428368C06803431343A2
:101CD0000B602B681C68012000F0F2FF2B681C6071
:101CE000E7E70220704700BF0F8120FF002800F0C7
:101CF000FF8170B582B00446036813F0010F29D04C
:101D0000954B9B6803F00C03042B1AD0924B9B68F5
:101D100003F00C03082B0FD06368B3F5803F40D06D
:101D2000002B54D18C4B1A6822F480321A601A6846
:101D300022F480221A6039E0874B5B6813F4800F2D
:101D4000EAD0854B1B6813F4003F03D06368002B77
:101D500000F0D081236813F0020F74D07E4B9B6893
:101D600013F00C0F5ED07C4B9B6803F00C03082B28
:101D700053D0E368002B00F08980774A136843F062
:101D80000103136000F096FF0546734B1B6813F0C8
:101D9000020F72D100F08EFF401B0228F5D90320FC
:101DA000ADE16D4A136843F48033136063682BB36D
:101DB00000F080FF0546684B1B6813F4003FC9D153
:101DC00000F078FF401B6428F5D9032097E1B3F5B4
:101DD000A02F09D0604B1A6822F480321A601A686A
:101DE00022F480221A60E1E75B4B1A6842F48022F9
:101DF0001A601A6842F480321A60D7E700F05AFF7E
:101E00000546554B1B6813F4003FA3D000F052FF6A
:101E1000401B6428F5D9032071E14F4B5B6813F434
:101E2000800FA6D14C4B1B6813F0020F03D0E36860
:101E3000012B40F06181484A136823F0F8032169BF
:101E400043EAC1031360236813F0080F46D06369A7
:101E500083B3414A536F43F00103536700F02AFFF5
:101E600005463D4B5B6F13F0020F37D100F022FFA8
:101E7000401B0228F5D9032041E1374A136823F0BB
:101E8000F803216943EAC1031360DCE7324A1368AF
:101E900023F00103136000F00DFF05462E4B1B6875
:101EA00013F0020FCFD000F005FF401B0228F5D938
:101EB000032024E1284A536F23F00103536700F005
:101EC000F9FE0546244B5B6F13F0020F06D000F0BD
:101ED000F1FE401B0228F5D9032010E1236813F01E
:101EE000040F7DD01C4B1B6C13F0805F1ED11A4B6E
:101EF0001A6C42F080521A641B6C03F080530193F9
:101F0000019B0125154B1B6813F4807F10D0A3683B
:101F1000012B25D0002B3BD10F4B1A6F22F0010271
:101F20001A671A6F22F004021A671EE00025E9E71B
:101F30000A4A136843F48073136000F0BBFE064640
:101F4000064B1B6813F4807FE1D100F0B3FE801BC9
:101F50006428F5D90320D2E0003802400070004028
:101F60006E4A136F43F001031367A36833B300F0A5
:101F7000A1FE0646694B1B6F13F0020F2FD100F034
:101F800099FE801B41F288339842F3D90320B6E0D2
:101F9000052B09D0614B1A6F22F001021A671A6FE4
:101FA00022F004021A67E0E75C4B1A6F42F0040269
:101FB0001A671A6F42F001021A67D6E700F07AFE3C
:101FC0000646564B1B6F13F0020F08D000F072FE4E
:101FD000801B41F288339842F3D903208FE0FDB98A
:101FE000A369002B00F08A804C4A926802F00C0230
:101FF000082A58D0022B19D0484A136823F080735E
:10200000136000F057FE0446444B1B6813F0007F3A
:1020100047D000F04FFE001B0228F5D903206EE0E8
:102020003E4A136C23F080531364D9E73B4A13688C
:1020300023F08073136000F03DFE0546374B1B68AC
:1020400013F0007F06D000F035FE401B0228F5D9C2
:10205000032054E0E369226A1343626A43EA82136D
:10206000A26A5208013A43EA0243E26A43EA02637F
:1020700043F00053294A5360136843F080731360A0
:1020800000F018FE0446254B1B6813F0007F06D1B4
:1020900000F010FE001B0228F5D903202FE00020DD
:1020A0002DE000202BE01D4A5268012B29D002F4BC
:1020B0008003E1698B4226D102F03F03216A8B4203
:1020C00023D1616A47F6C0731340B3EB811F1ED161
:1020D00002F44031A36A5B08013BB1EB034F18D116
:1020E00002F07062E36AB2EB036F14D1002006E0E5
:1020F00001207047012002E0012000E0002002B032
:1021000070BD0120FBE70120F9E70120F7E701207E
:10211000F5E70120F3E70120F1E700BF00380240B6
:1021200008B5314B9B6803F00C03042B57D0082BE8
:1021300057D12D4B5A6802F03F025B6813F4800FB1
:102140002AD0294B5968C1F3881C4FEA4C11B1EBD6
:102150000C006EEB0E0E4FEA8E1343EA9063810182
:10216000091A63EB0E03DB0043EA5173C90011EB5C
:102170000C0C43F10003590200234FEA4C2041EAC2
:10218000DC51FEF795F8184B5B68C3F3014301334C
:102190005B00B0FBF3F025E0134B5968C1F3881CDA
:1021A0004FEA4C11B1EB0C006EEB0E0E4FEA8E13A2
:1021B00043EA90638101091A63EB0E03DB0043EAF3
:1021C0005173C90011EB0C0C43F100039902002379
:1021D0004FEA8C2041EA9C51FEF76AF8D3E70348A6
:1021E00000E0034808BD00BF0038024000127A003A
:1021F0000024F400002800F0A08070B50D460446CD
:10220000524B1B6803F00F038B420BD24F4A1368EB
:1022100023F00F030B431360136803F00F038B428B
:1022200040F08D80236813F0020F17D013F0040FD5
:1022300004D0474A936843F4E0539360236813F053
:10224000080F04D0424A936843F460439360404AC5
:10225000936823F0F003A1680B439360236813F0A5
:10226000010F31D06368012B20D0022B25D0384AD2
:10227000126812F0020F64D035498A6822F0030216
:1022800013438B6000F016FD0646314B9B6803F04C
:102290000C036268B3EB820F16D000F00BFD801BBD
:1022A00041F288339842F0D9032045E0284A126869
:1022B00012F4003FE0D101203EE0254A126812F0FE
:1022C000007FD9D1012037E0204B1B6803F00F03BA
:1022D000AB420AD91D4A136823F00F032B43136046
:1022E000136803F00F03AB422DD1236813F0040FE2
:1022F00006D0174A936823F4E053E1680B439360D8
:10230000236813F0080F07D0114A936823F4604341
:10231000216943EAC1039360FFF702FF0C4B9B68FE
:10232000C3F303130B4AD35CD8400B4B18600B4B21
:10233000186800F081FC002070BD0120704701206A
:10234000FAE70120F8E70120F6E700BF003C024071
:10235000003802408CBA0008080000200400002069
:10236000014B1868704700BF0800002008B5FFF750
:10237000F7FF044B9B68C3F38223034AD35CD84026
:1023800008BD00BF003802409CBA000808B5FFF73E
:10239000E7FF044B9B68C3F34233034AD35CD84046
:1023A00008BD00BF003802409CBA0008F0B583B0F9
:1023B0000446066816F001060DD0A74B9A6822F471
:1023C00000029A609A68416B0A439A60436B002B43
:1023D00000F039810026256815F4002511D09E4AA9
:1023E000D2F88C3023F44013E16B0B43C2F88C30ED
:1023F000E36BB3F5801F00F02881002B00F02781EC
:102400000025236813F4801F0FD0934AD2F88C3034
:1024100023F44003216C0B43C2F88C30236CB3F5DA
:10242000800F00F0168103B90125236813F0807F27
:1024300000D0012613F0200F40F01081236813F024
:10244000100F0CD0844BD3F88C2022F08072C3F88C
:102450008C20D3F88C20A16B0A43C3F88C2023680E
:1024600013F4804F08D07C4AD2F8903023F44033E4
:10247000616E0B43C2F89030236813F4004F08D00C
:10248000754AD2F8903023F44023A16E0B43C2F872
:102490009030236813F4803F08D06F4AD2F8903010
:1024A00023F44013E16E0B43C2F89030236813F419
:1024B000003F08D0684AD2F8903023F44003216FDF
:1024C0000B43C2F89030236813F0400F08D0624AE3
:1024D000D2F8903023F00303616C0B43C2F89030C4
:1024E000236813F0800F08D05B4AD2F8903023F0B5
:1024F0000C03A16C0B43C2F89030236813F4807F67
:1025000008D0554AD2F8903023F03003E16C0B43E9
:10251000C2F89030236813F4007F08D04E4AD2F8F6
:10252000903023F0C003216D0B43C2F89030236834
:1025300013F4806F08D0484AD2F8903023F44073E7
:10254000616D0B43C2F89030236813F4006F08D01C
:10255000414AD2F8903023F44063A16D0B43C2F896
:102560009030236813F4805F08D03B4AD2F8903053
:1025700023F44053E16D0B43C2F89030236813F409
:10258000005F08D0344AD2F8903023F44043216EE3
:102590000B43C2F89030236813F4800F08D02E4A02
:1025A000D2F8903023F08063A16F0B43C2F89030D3
:1025B000236813F4001F0DD0274AD2F8903023F07F
:1025C0000063E16F0B43C2F89030E36FB3F1006F2B
:1025D00000F0AA80236813F0080F00D0012513F43F
:1025E000802F08D01C4AD2F8903023F04073616FDE
:1025F0000B43C2F89030236813F4000F09D0164A39
:10260000D2F8903023F08053D4F880100B43C2F8F6
:10261000903026B9236813F0007F00F005810E4A40
:10262000136823F08063136000F044FB06460A4BF6
:102630001B6813F0006F79D000F03CFB801B64280E
:10264000F5D90320F3E00126C5E60126D5E60125EC
:10265000D7E60126E7E600BF003802407F4B1A6C40
:1026600042F080521A641B6C03F080530193019B6B
:102670007B4A136843F48073136000F01BFB07462A
:10268000774B1B6813F4807F06D100F013FBC01B4F
:102690006428F5D90320CAE0704B1B6F13F4407314
:1026A00015D0226B02F440729A4210D06B4B1A6F15
:1026B00022F44072196F41F480311967196F21F4C7
:1026C000803119671A671B6F13F0010F12D1236B4A
:1026D00003F44072B2F5407F1DD0604A936823F442
:1026E000F81393605D490B6F226BC2F30B02134327
:1026F0000B67A3E600F0DEFA0746584B1B6F13F09A
:10270000020FE4D100F0D6FAC01B41F288339842A0
:10271000F3D903208BE05148826822F4F812514922
:1027200019400A438260DDE7012553E7236813F06F
:10273000010F13D0636B8BB9484AD2F88430D2F8BA
:102740008410606803F4403343EA801301F0706141
:102750000B43A16843EA0173C2F88430236813F481
:10276000002F03D0E26BB2F5801F06D013F4801F58
:102770001ED0236CB3F5800F1AD1384AD2F88430BA
:10278000D2F88410606803F4403343EA8013E068B1
:1027900043EA006301F0E0410B43C2F88430D2F811
:1027A0008C3023F01F03616A01390B43C2F88C306F
:1027B000236813F0807F11D0284AD2F88400D2F821
:1027C0008410666823691B0443EA861300F0706076
:1027D000034301F0E0410B43C2F88430236813F057
:1027E000007F0DD0626823691B0443EA8213E2680C
:1027F00043EA0263A26843EA0273184AC2F88430CB
:10280000164A136843F08063136000F053FA0646DB
:10281000124B1B6813F0006F06D100F04BFA801BBF
:102820006428F5D9032002E0012D02D0002003B076
:10283000F0BD0A4A136823F08053136000F03AFA9F
:102840000546064B1B6813F0005F0DD000F032FA0E
:10285000401B6428F5D90320E9E700BF0038024097
:1028600000700040FFFCFF0F236813F4002F01D01D
:10287000E26B22B113F4801F1DD0236CDBB9354A03
:10288000D2F88830D2F88810606903F4403343EA04
:102890008013A06943EA006301F0E0410B43C2F8F2
:1028A0008830D2F88C3023F4F853A16A013943EA16
:1028B0000123C2F88C30236813F4001F03D0E36FA8
:1028C000B3F1006F31D0236813F0080F19D0214AFB
:1028D000D2F88810D2F88830606903F4403343EAB4
:1028E000801301F070610B43E16943EA0173C2F8A0
:1028F0008830D2F88C3023F44033E16A0B43C2F8BD
:102900008C30144A136843F08053136000F0D2F9FE
:102910000446104B1B6813F0005F19D100F0CAF990
:10292000001B6428F5D9032081E70A4AD2F8880001
:10293000D2F888106569236A1B0443EA851300F006
:102940007060034301F0E0410B43C2F88830BAE7FE
:1029500000206CE70038024000230F2B00F2EF80CC
:1029600070B582B061E085685E000324B44025EA5A
:102970000405CC68B4402C438460456825EA020510
:102980004C68C4F300129A402A4342605BE0DC08C2
:10299000083450F8246003F0070295000F22AA4083
:1029A00026EA020E0A69AA4042EA0E0240F82420F2
:1029B0005DE0092200E0002202FA0EF22A4302340E
:1029C0005F4D45F824205F4A94686FEA0C0224EAC0
:1029D0000C054E6816F4801F01D04CEA0405594CD2
:1029E000A560E46802EA04054E6816F4001F01D0F1
:1029F0004CEA0405534CE560646802EA04054E683D
:102A000016F4003F01D04CEA04054E4C6560246882
:102A100022404D6815F4803F01D04CEA0402494C35
:102A2000226001330F2B00F2888001229A400C684B
:102A300004EA020C32EA0404F3D14C6804F0030403
:102A4000013C012C8FD94A6802F00302032A09D005
:102A5000C4685D000322AA4024EA02048A68AA40EE
:102A60002243C2604A6802F00302022A8FD004683F
:102A70004FEA430E032202FA0EF224EA02044A68E5
:102A800002F0030202FA0EF2224302604A6812F4D4
:102A9000403FC6D02C4A546C44F480445464526C79
:102AA00002F480420192019A9C08A51C244A52F823
:102AB000255003F003024FEA820E0F2202FA0EF2B3
:102AC00025EA0205214A90423FF475AF02F5806283
:102AD000904222D002F58062904220D002F58062BE
:102AE00090421ED002F5806290421CD002F58062B6
:102AF00090421AD002F58062904218D002F58062AE
:102B0000904216D002F58062904214D002F58062A5
:102B100090423FF44EAF0A224EE701224CE70222D8
:102B20004AE7032248E7042246E7052244E7062253
:102B300042E7072240E708223EE702B070BD704737
:102B400000380140003C01400038024000000240D3
:102B50000AB181617047090481617047436901EAE4
:102B6000030221EA030141EA02418161704700004A
:102B7000024A136843F4807313607047007000408A
:102B80000649CB6823F4E0631B041B0C000200F42D
:102B9000E0600343024A1A43CA60704700ED00E058
:102BA0000000FA0500B5174BDB68C3F30223C3F13D
:102BB000070CBCF1040F28BF4FF0040C03F1040E06
:102BC000BEF1060F14D9033B4FF0FF3E0EFA0CFC8A
:102BD00021EA0C0199400EFA03F322EA0303194398
:102BE000002807DB0901C9B2074B19545DF804FB43
:102BF0000023E9E700F00F000901C9B2034B1954A3
:102C0000F4E700BF00ED00E000E400E014ED00E0B8
:102C10000138B0F1807F0BD24FF0E0235861054AB4
:102C2000F02182F823100020986107221A61704772
:102C30000120704700ED00E010B504460E4B1878F7
:102C40004FF47A73B3FBF0F30C4A1068B0FBF3F067
:102C5000FFF7DEFF68B90F2C01D901200AE000223E
:102C600021464FF0FF30FFF79DFF054B1C60002011
:102C700000E0012010BD00BF00000020080000207F
:102C80000400002008B50320FFF77AFF0020FFF7BB
:102C9000D3FFFDF7A3FF002008BD0000034A116821
:102CA000034B1B780B441360704700BF683700204C
:102CB00000000020014B1868704700BF68370020F3
:102CC00038B50446FFF7F6FF0546B4F1FF3F02D0E2
:102CD000044B1B781C44FFF7EDFF401BA042FAD3C6
:102CE00038BD00BF0000002010B5044683680269AB
:102CF000134342691343C269134301680868934A46
:102D0000024013430B602268536823F44053E16888
:102D10000B435360A269236A1A4321688B6823F42A
:102D2000306313438B602368894A934219D0894AE0
:102D3000934229D0884A93423ED0884A934262D037
:102D4000874A934271D0874A934200F08380864A33
:102D5000934200F09480854A934200F0A5801023AE
:102D60003AE0834BD3F8903003F00303032B09D8E8
:102D7000DFE803F00204AE0601232DE004232BE07C
:102D8000082329E0102327E0794BD3F8903003F093
:102D90000C030C2B0ED8DFE803F0070D0D0D090D09
:102DA0000D0D9D0D0D0D0B00002315E0042313E008
:102DB000082311E010230FE06D4BD3F8903003F09F
:102DC0003003202B00F0888019D8002B00F086807B
:102DD000102B40F085800423E069B0F5004F00F02F
:102DE000AB80082B00F20C81DFE813F0E800FB0059
:102DF000E6000A01FE000A010A010A010101302B66
:102E000070D10823E8E75A4BD3F8903003F0C003A1
:102E1000802B69D005D8002B68D0402B68D10423C3
:102E2000DAE7C02B66D10823D6E7514BD3F89030B0
:102E300003F44073B3F5007F5ED006D8002B5DD05D
:102E4000B3F5807F5CD10423C6E7B3F5407F59D149
:102E50000823C1E7464BD3F8903003F44063B3F541
:102E6000006F51D006D8002B50D0B3F5806F4FD1F2
:102E70000423B1E7B3F5406F4CD10823ACE73C4BDA
:102E8000D3F8903003F44053B3F5005F44D006D834
:102E9000002B43D0B3F5805F42D104239CE7B3F508
:102EA000405F3FD1082397E7314BD3F8903003F4CC
:102EB0004043B3F5004F37D005D8BBB3B3F5804FCF
:102EC00036D1042388E7B3F5404F33D1082383E795
:102ED000022381E702237FE702237DE700237BE7CC
:102EE000102379E7102377E7022375E7002373E7C0
:102EF000102371E710236FE702236DE700236BE7D0
:102F0000102369E7102367E7022365E7012363E7DE
:102F1000102361E710235FE702235DE700235BE7EF
:102F2000102359E7102357E7022355E7002353E7FF
:102F3000102351E710234FE7082B5BD8DFE803F09D
:102F40001A343A5A375A5A5A1E0000BFF369FFEF33
:102F5000001001400044004000480040004C004088
:102F6000005000400014014000780040007C004008
:102F700000380240FFF7FAF900283DD06268530894
:102F800003EB4000B0FBF2F0A0F110024FF6EF733C
:102F90009A4233D883B223F00F03C0F342001843A0
:102FA0002368D860002030E0FFF7F0F9E4E7FFF78E
:102FB000B7F8E1E71748E1E7164802E0FFF7D6F96E
:102FC00000B3636800EB5300B0FBF3F0A0F1100214
:102FD0004FF6EF739A4217D8236880B2D86000206A
:102FE00013E0FFF7D3F9EBE7FFF79AF8E8E74FF4C0
:102FF0000040E6E7012008E0002006E0012004E0B0
:10300000012002E0002000E0012000236366A366A7
:1030100010BD00BF0024F400436A13F0010F06D076
:103020000268536823F40033816A0B435360436A98
:1030300013F0020F06D00268536823F48033C16A8C
:103040000B435360436A13F0040F06D002685368C1
:1030500023F48023016B0B435360436A13F0080F82
:1030600006D00268536823F40043416B0B4353605E
:10307000436A13F0100F06D00268936823F480535C
:10308000816B0B439360436A13F0200F06D00268F4
:10309000936823F40053C16B0B439360436A13F0AE
:1030A000400F0AD00268536823F48013016C0B436D
:1030B0005360036CB3F5801F0BD0436A13F0800F8D
:1030C00006D00268536823F40023816C0B435360DD
:1030D00070470268536823F4C003416C0B4353608C
:1030E000EBE72DE9F84305460F4616469946DDF80D
:1030F00020802C68E46937EA04030CBF4FF0010C10
:103100004FF0000CB44553D1B8F1FF3FF1D0FFF7B9
:10311000D1FDA0EB090040452DD8B8F1000F2AD011
:103120002B681A6812F0040FE3D0DA6912F4006F0A
:10313000DFD04FF400621A622A6852E8003F23F49D
:10314000D07342E800310029F6D12A6802F1080361
:1031500053E8003F23F00103083242E80031002920
:10316000F3D12023AB67EB67C5F88030002385F8E7
:10317000743003201DE02A6852E8003F23F4D07326
:1031800042E800310029F6D12A6802F1080353E829
:10319000003F23F00103083242E800310029F3D157
:1031A0002023AB67EB67002385F87430032000E031
:1031B0000020BDE8F88310B582B004460023C0F8B3
:1031C0008030FFF777FD23681B6813F0080F08D1E4
:1031D0002023A367E3670020206684F8740002B010
:1031E00010BD6FF07E430093034600224FF40011A0
:1031F0002046FFF776FF0028EAD00320EFE768B308
:1032000010B50446836F03B32423A36722681368B1
:1032100023F0010313602046FFF766FD012813D059
:10322000636ABBB92268536823F4904353602268F1
:10323000936823F02A0393602268136843F0010324
:1032400013602046FFF7B7FF10BD80F87430FDF71C
:103250000DFCD9E72046FFF7DFFEE3E701207047CA
:1032600070B58AB0002800F097800546046890F891
:10327000BD333BB3032385F8BD33E36B13F4807F89
:1032800001D100232B61286800F000F92C4654F886
:10329000106BEC460FCCACE80F000FCCACE80F0085
:1032A00094E803008CE803002B1D0ECB304600F0A1
:1032B000AFF8044658B1022385F8BD3301242046F7
:1032C0000AB070BD80F8BC33FDF722FCD2E70021C4
:1032D000286800F009FA234616E0C3EBC30205EBA9
:1032E0008202012182F83D1082F83C30A2F842307F
:1032F000002182F83F1051649164C3EBC30205EBD7
:10330000820211650133DBB269688B42E5D316E0B6
:10331000C4EBC40305EB8303002283F8FD2183F88B
:10332000FC4183F8FF21C3F80422C3F80822C4EB50
:10333000C40305EB8303C3F810220134E4B2A142B5
:10334000E6D82C4654F8106BEC460FCCACE80F00D6
:103350000FCCACE80F0094E803008CE803002B1DB1
:103360000ECB304600F0EAF8044660B9002385F839
:103370003830012385F8BD336B6A012B08D02868EB
:1033800000F0A0F99BE7022385F8BD33012496E7FE
:10339000284600F003F8F2E7012490E703460268AC
:1033A0000121C0F8FC13002083F8F403936943F073
:1033B00000639361516D024B0B435365704700BF2F
:1033C0000300001082B000230193019B013301939D
:1033D0000E4A934214D80369002BF6DA00230193B6
:1033E000036943F001030361019B01330193074A21
:1033F000934208D8036913F0010FF5D1002000E0D3
:10340000032002B070470320FBE700BF400D03001C
:1034100084B010B5044603A880E80E00089B012B79
:103420001DD1A36B23F48033A363E268164B1340D2
:10343000E360E36823F44013E3600F9B012B09D0A2
:103440002046FFF7BFFF069B012B14D0BDE81040BC
:1034500004B07047E36843F48013E360F0E7E36887
:1034600043F04003E3602046FFF7ACFFA36B43F457
:103470008033A363E7E7A36843F00603A360A36870
:1034800043F02003A360E1E7BFFFBDFF836823F0A3
:10349000010383600020704782B000230193019BE9
:1034A000013301930E4A934214D80369002BF6DAD4
:1034B00000230193890141F020010161019B013347
:1034C0000193074A934208D8036913F0200FF5D1FE
:1034D000002000E0032002B070470320FBE700BF9C
:1034E000400D030082B000230193019B013301933F
:1034F0000D4A934212D80369002BF6DA0023019398
:1035000010230361019B01330193074A934208D8BA
:10351000036913F0100FF5D1002000E0032002B082
:1035200070470320FBE700BF400D0300D0F80038D0
:103530001943C0F8001800207047000084B02DE93E
:10354000F041044607A880E80E00002306E003F1DE
:10355000400204EB82020021516001330E2BF6D9A8
:10356000119F27BBD4F8043843F00203C4F8043891
:10357000A36B23F40013A363236843F04003236089
:10358000236843F0800323600023C4F8003E04F561
:103590000065D4F80038C4F800380C9B012B10D11A
:1035A000099B4BB900212046FFF7C0FF0DE0A36B3C
:1035B00043F40013A363E7E701212046FFF7B6FFBA
:1035C00003E003212046FFF7B1FF10212046FFF75B
:1035D00063FF804608B14FF001082046FFF782FFE5
:1035E00008B14FF0010800232B616B61EB610AE029
:1035F000C3B94FF00060C2F8000900220A614FF61B
:103600007F328A6001330799994210D904EB431243
:1036100002F51061D2F800090028E9DB0020C2F8A9
:103620000009EAE74FF09040C2F80009E5E70023FF
:103630000AE0C3B14FF0904CC2F800CB0022026107
:103640004FF67F3282600133994211D904EB431265
:1036500002F53060D2F8006B002EEADB4FF0000C70
:10366000C2F800CBEAE74FF0006CC2F800CBE5E708
:103670002B6923F480732B610023A3616FF08043D7
:1036800063610A9B1BB9A36943F01003A361A2699C
:103690000A4B1343A3610D9B1BB1A36943F00803BD
:1036A000A361012F04D04046BDE8F04104B070474B
:1036B000A269034B1343A361F5E700BF00383C80C8
:1036C00004000040D0F8003E23F00303C0F8003EA1
:1036D000D0F8043843F00203C0F8043800207047E3
:1036E000406900F00100704738B50546C36823F013
:1036F000C043C360012913D019BBC36843F08043A2
:10370000C36000240120FFF7DBFA01342846FFF7ED
:10371000E7FF08B1312CF5D9322C14D0002038BD88
:10372000C36843F00053C36000240120FFF7C8FAC8
:1037300001342846FFF7D4FF0128EDD0312CF4D90D
:10374000EAE70120EBE70120E9E70000034AD2F8AD
:10375000883043F47003C2F88830704700ED00E011
:1037600070B5044643890E2B1CD90D46C37B1BB98B
:1037700091F830300133C37360688689037813F0A1
:10378000010F0AD0012B12D006221E4907F072F851
:1037900018B9637B43F008036373082E12D0B6F5A3
:1037A000C16F1FD0204600F04BFB002070BD437856
:1037B000002BF2D183785E2BEFD1637B43F01003B3
:1037C0006373EAE795F82D3013F0080FEAD00E2165
:1037D000204600F0EFFA0028E4D12946204606F002
:1037E000B3F8E2E795F82D3013F0080FDAD00E2188
:1037F000204600F0DFFA0028D4D12946204606F002
:1038000021FCD2E70CBB00082DE9F04105460C462F
:1038100016461F46BDF8180001F02EFF80460E2107
:10382000204600F0C2FAE8B96168A1F80C803B6854
:103830000B60BB888B803368C1F80630B3884B813E
:1038400095F82C30062B05D1AB69214628469847C0
:10385000BDE8F081054B4FF499720549054807F022
:103860002FF8F1E76FF00100F2E700BFA4BA0008FB
:10387000D8BA000864BA00080B688268934205D081
:1038800011B18360012070470023FAE700207047E0
:103890000B68C268934205D011B1C3600120704724
:1038A0000023FAE7002070476FF00B00704738B52F
:1038B00004460D4601F048FA2946204602F00CF86D
:1038C00038BD000038B50C46054670B195F82D306E
:1038D00003F00502052A07D114F0010F04D06A682D
:1038E00012B113F0080F08D138BD064B40F26D320B
:1038F0000549064806F0E4FFE8E7291D284606F0DA
:10390000FDFBF1E71CBB00084CBB000864BA0008D3
:1039100070B582B0044615460E4639B175B13268AD
:1039200063689A4212D1002002B070BD104B40F281
:10393000CB121049104806F0C3FFEFE70C4B4FF4D1
:10394000E6720C490C4806F0BBFFE8E701922B60D9
:1039500001A92846FFF7ABFF3EB133686360012140
:103960002046FFF7AFFF0120DEE70023F6E700BFA8
:103970001CBB000870BB000864BA00087047000058
:103980002DE9F04182B0044616461D460F46D9B1D6
:10399000E6B1EDB10FB13B68E3B901AA3946204663
:1039A000FFF7B6FF4FF00108002231462046FFF72F
:1039B00063FF002229462046FFF76AFFB8F1000F97
:1039C0000BD002B0BDE8F081074FE1E7064EE0E71B
:1039D000054DDFE74FF00008E6E701AA394620462B
:1039E000FFF796FFEDE700BFE4DB000870B5059C2C
:1039F000064610B3002C29D0002930D0002A30D040
:103A0000002B30D000207060B060F060364D7561E2
:103A1000B08486F82D00F061049830623348007855
:103A200086F83000069830613046FFF7A9FF30462F
:103A3000A04700283ED0002050E02D4B40F2271236
:103A40002C492D4806F03CFF304647E0284B4FF408
:103A500094722A49284806F033FF00203EE02849A6
:103A6000CCE7274ACCE7264BCCE7002386F830305A
:103A700024E01F4B40F28B1222491F4806F020FF22
:103A800009E094F8302096F830309A420ED024683D
:103A90007CB1B442EDD00135FF2DF2DD144B40F284
:103AA0008D121949144806F00BFFEAE7013386F836
:103AB00030303CB196F83030FF2BD6D0134B1C6819
:103AC0000025E5E796F83030FE2B08D00133074A91
:103AD00013700E4B1A6832601E60304670BD034B87
:103AE00000221A70F5E700BFA938000874370020DB
:103AF0001CBB000880BB000864BA00089CBB00081F
:103B0000E4DB0008C0BB0008D4BB0008703700200D
:103B1000014B1860704700BF6C37002008B528B112
:103B200090F82D3013F0010F08D008BD074B4FF46B
:103B300054720749074806F0C3FEF6E743F0010355
:103B400080F82D300321FFF7BDFEEEE71CBB000817
:103B500004BC000864BA000808B560B190F82D30C4
:103B600013F0010F06D003F0FE0380F82D3013F0A0
:103B7000080F08D108BD054B40F29B3204490548A7
:103B800006F09EFEF6E706F03FFAF3E71CBB0008DE
:103B900020BC000864BA000810B530B1044690F8A3
:103BA0002D3013F0040F08D010BD0A4B4FF478727B
:103BB00009490A4806F084FEF6E743F0040380F85A
:103BC0002D300321FFF77EFEE369002BECD0204669
:103BD0009847E9E71CBB000840BC000864BA00082D
:103BE00008B560B190F82D3013F0040F06D003F043
:103BF000FB0380F82D30C36903B1984708BD044B1F
:103C000040F206420349044806F05AFEF6E700BFB8
:103C10001CBB000864BC000864BA000800B1C161A4
:103C200070470000024658B1064B186838B190F84A
:103C300030300133DBB2934203D00068F6E77047BF
:103C40000020704770370020014B01221A70704726
:103C50007537002010B40024046041600281438164
:103C60009DF8043003739DF8083043730123837378
:103C7000C4735DF8044B704770B50C461646054694
:103C8000C8B1002D18BFB4F5803F24D22CB3A2B226
:103C90002B8913449BB2934221D395F90C10002930
:103CA00011DBF6B169680C1B6C6069890A446A8192
:103CB0002B81002010E00C4B40F2DF120B490C4826
:103CC00006F0FEFDDDE769680C1B05F11001A1425D
:103CD000EAD9012000E0012070BD0020FCE70120AE
:103CE000FAE70120F8E700BF88BC0008B8BC00086C
:103CF00064BA000808B5074B00221A70064B186812
:103D000000E0C06820B1436F002BFAD000F086FEBF
:103D100008BD00BF7537002078370020F0B583B0AC
:103D200006460D461446412A18BF012A0FD1072026
:103D300001F054FE074638B10023019300942B464E
:103D40002A463146FFF786FF384603B0F0BD044BE4
:103D50004FF4A5720349044806F0B2FDE7E700BF3F
:103D600088BC0008C4BC000864BA000830B583B041
:103D70008E461C46069900F1030C2CF0030C0EEB4A
:103D80000C00BDF81C3098420DD801B161442546A5
:103D9000022301930092734672462046FFF75AFFB2
:103DA000284603B030BD0025FAE708B50022FFF72A
:103DB00063FF08BD38B50C46054698B1002D18BF05
:103DC000B4F5803F1FD204B3A2B26B89934211D3E2
:103DD0006968214469609B1A6B812B899A1A2A8130
:103DE000002038BD0A4B40F24B220A490A4806F02F
:103DF00067FDE3E7064B40F255220849064806F006
:103E00005FFD0120EDE70120EBE70020E9E700BFBF
:103E100088BC0008B8BC000864BA0008D8BC000818
:103E200008B5002902DBFFF727FF08BD4942FFF76D
:103E3000C1FFFAE708B50122FFF7F2FF08BD000055
:103E400070B510B10446002517E0284B4FF43772C7
:103E50002749284806F034FD0025284670BD234B2D
:103E600040F2F1222449234806F02AFD0AE02369A2
:103E7000204698470135EDB23446002CEDD0A37BA7
:103E8000002BECD0A37B013BDBB2A373002BE4D16E
:103E90002668237B03F00F03627B12F0020F0AD027
:103EA0002369002BE3D1114B40F2FF221349114843
:103EB00006F006FDDBE7022B06D0012B09D06BB91B
:103EC000204601F09BFED5E72146082001F0A0FD29
:103ED000D0E72146072001F09BFDCBE7034B40F2E2
:103EE0000F320749034806F0EBFCC3E788BC000823
:103EF000B8BC000864BA0008F8BC000810BD00088F
:103F000034BD00082DE9F04782B00E46904685B2D8
:103F1000B2F5C17F46D004460ED8012A02D0412A0C
:103F200040F08480424631460020FFF7F7FE81468C
:103F3000484602B0BDE8F087B2F5207F76D1033560
:103F400025F00305ADB2CA1C93B223F003031D4450
:103F5000ADB205F1100080B222F0030295426FD39A
:103F6000824270D801F066FF81460028E0D004F15B
:103F700010010144033100230193CDF80080334642
:103F8000324621F00301FFF765FED9F8043013F043
:103F9000030FCDD02D4B4FF491722D492D4806F0D3
:103FA0008FFCC5E70027B94613E0FFF74DFEB9F1D6
:103FB000000F02D04846FFF743FFB946B8E7B9F112
:103FC000000F31D0CAF80070361BB6B20025002EA3
:103FD000AED0BA46082001F001FD07460028E4D023
:103FE000EC1C24F00304A4B2C4F51474A4B2B442CB
:103FF00028BF344605F11001014403310023019329
:10400000CDF800802346324621F00301FFF722FE5F
:104010007B6813F0030FD2D00C4B4FF480720E4923
:104020000C4806F04DFCCAE7B946CDE7074B40F215
:1040300027120A49074806F043FC4FF0000977E7CA
:104040004FF0000974E74FF0000971E788BC0008E1
:10405000ACBD000864BA000848BD0008D8BD00081F
:10406000F8B50E460446B8B12789B7422ED9354671
:104070006389AB4218D2EB1A9DB22389F21B134419
:1040800023812468002CF3D11A4B40F2AF121A4955
:104090001A4806F015FCEBE7164B4FF4CC721849A2
:1040A000164806F00DFCDFE7227B12F00F0F05D15A
:1040B000AB4203D0637B13F0020F08D065812581EA
:1040C000206808B1FFF7BCFE00232360F8BD6368D9
:1040D0001B1BE91889B2204601F0EAFD04460028BE
:1040E000ECD1044B40F2BD120649044806F0E8FB4F
:1040F000E4E700BF88BC00080CBE000864BA0008F2
:10410000F4BD000824BE00080346002002E0013090
:1041100080B21B68002BFAD17047000070B108B55F
:10412000837B0133DBB2837303B108BD044B40F2E0
:1041300042320449044806F0C3FBF6E7704700BF6B
:1041400088BC000840BE000864BA000838B50446C0
:104150000D46002918BF00280CD1154B40F25932EA
:104160001449154806F0ACFB19E0238929890B4452
:10417000238114462268002AF7D1228963899A4252
:104180000ED1236833B10A4B40F263320B490A481F
:1041900006F096FB23892A8913442381256038BDC4
:1041A000034B40F262320649034806F089FBE8E718
:1041B00088BC000854BE000864BA0008BCBE0008F1
:1041C0008CBE00082DE9F041002918BF002808D056
:1041D00005460C4602890B899A4202D30027B8464D
:1041E0003CE03B4B40F2C9323A493B4806F068FBA1
:1041F0006FF00F006AE0364B40F2D932374936484B
:1042000006F05EFB3EE0324B40F2DA32344932488F
:1042100006F056FB39E02D68B5FA85F35B09002CF2
:1042200008BF002313B94FF0000836E0284B4FF4C5
:1042300079722C49284806F043FB6FF00F0045E0E7
:1042400023687BB3224B40F2E9322749224806F02B
:1042500037FB6FF0050039E0002C36D06E89A6EBF5
:1042600008066389DB1B9E4200D31E4668686168AE
:1042700032463944404406F00DFBB04437446B8964
:104280004345B8D36389BB42BDD36389BB4201D8E0
:10429000246800276B894345BDD01CB162892389FE
:1042A0009A42CDD0002DD7D06A892B899A42D3D19A
:1042B0002B68002BD0D0064B40F2EE320A4906485C
:1042C00006F0FEFA6FF0050000E00020BDE8F08186
:1042D00088BC0008CCBE000864BA0008FCBE000818
:1042E00014BF000830BF000840BF00082DE9F843A4
:1042F00030B188469146054669B100273E462AE01E
:104300001B4B40F20A421B491B4806F0D9FA002712
:104310003846BDE8F883164B40F20B421749164861
:1043200006F0CEFA0027F3E76C89E41AA4B2A1459F
:1043300000D24C4669682246194408EB060006F094
:10434000A9FA2744BFB22644B6B2A9EB04041FFA67
:1043500084F900232D68B9F1000F18BF002DD7D0C4
:10436000002BE1D069899942DED85B1A9BB2F1E754
:1043700088BC00086CBF000864BA00088CBF000845
:1043800038B514460A462189FFF7BCFD054618B129
:104390002146FFF717FF08B9284638BD034B40F206
:1043A00024520349034806F08BFAF5E788BC00085D
:1043B000B0BF000864BA00084FF0000C0BE0164BC9
:1043C0004FF440421A800FE00CF1010C1FFA8CFCF4
:1043D000BCF5804F1DD2104A138801339BB2138065
:1043E0004FF6FF729342EAD0002003280ED80B4B01
:1043F00053F820301B6833B1D98A074A128891429A
:10440000E2D0DB68F7E70130C0B2EEE7024B188874
:1044100070470020704700BF100000202CC6000825
:1044200038B504460D4639B9074BFF2207490848FD
:1044300006F046FA00E0E4682CB1E36FAB42FAD133
:104440000023E367F7E738BDC4BF0008F0BF0008EA
:1044500064BA000838B5054620B12B7D012B09D17F
:10446000012417E00D4B40F211120D490D4806F0E2
:1044700027FAF2E7094B4FF489720B49094806F015
:104480001FFAEDE7094B53F8243029461868FFF767
:10449000C7FF0134032CF5D938BD00BFC4BF0008E5
:1044A00018C0000864BA000824C000082CC6000820
:1044B00010B50446037D012B04D02146022001F0F3
:1044C000A7FA10BD034BDF220349044806F0F8F9B0
:1044D000F3E700BFC4BF00083CC0000864BA00088E
:1044E00038B5054648B12B7D042B1FD0072B26D0AD
:1044F000032B0AD00024204638BD174B4FF4CE7250
:104500001649174806F0DCF9EDE7284604F0E8F80C
:10451000044608B905232B75D4B1B4F1FF3FEAD1A5
:104520006B8B43F008036B830024E4E7284604F018
:10453000D7F804460028EFD105232B75ECE7284671
:1045400004F0CEF804460028E6D109232B75E3E7F2
:10455000284604F043FACEE7C4BF000818C000089C
:1045600064BA0008094B186878B110B501E020461C
:1045700054B1C468438B13F0080FF8D023F008033C
:104580004383FFF7ADFFF2E710BD70477837002097
:1045900008B506F0ADF9024B0343024A138008BD8B
:1045A00000C0FFFF1000002010B50446037D012B62
:1045B00004D02146012001F02BFA10BD034BD42278
:1045C0000349044806F07CF9F3E700BFC4BF0008C4
:1045D00058C0000864BA000838B5044690B1656A4E
:1045E000218D6818E26AB4F832C0BCF5866F94BFBA
:1045F00002EB0C0302F58663C31A002B0ADB61850C
:10460000801A38BD0E4B40F2A6320E490E4806F015
:1046100057F9E4E7AB1A002B03DD00236385002084
:10462000EFE7551BB5F5803F01D26585F7E7044BF1
:1046300040F2B6320549044806F042F9F5E700BFFA
:10464000C4BF00086CC0000864BA000890C000082D
:1046500038B5B0B10C460546037D012B19D02B8D22
:10466000191989B2B1F5066F01D88B4219D94FF4E7
:1046700006632B852846FFF7AFFFB0F5067F12D201
:1046800038BD0D4B40F2CF320C490D4806F018F9F9
:10469000F6E7094B40F2D2320A49094806F010F910
:1046A000DDE72985E6E76B8B43F002036B83284641
:1046B00004F094F9E4E700BFC4BF0008ACC00008F0
:1046C00064BA0008C4C0000850B110B50446406880
:1046D00008B1FFF7B5FB2146032001F099F910BDA1
:1046E000704738B110B50468FFF7EEFF2046002C84
:1046F000F9D110BD7047000008B508B1417508BD7B
:10470000034B4FF4CE620349034806F0D9F8F6E7AD
:10471000C4BF0008ECC0000864BA000838B50546FC
:1047200088B1032001F05AF9044650B1286869683D
:10473000AA68EB6820606160A260E3606068FFF7D0
:10474000EDFC204638BD044B40F282620349044828
:1047500006F0B6F8E5E700BFC4BF000808C10008CE
:1047600064BA000800B101617047000080B138B53B
:104770000C460546037D012B02D0C5F8844038BDA8
:10478000044B40F2DF720449044806F099F8F4E75C
:10479000704700BFC4BF000824C1000864BA000805
:1047A00080B138B50C460546037D012B02D0C5F813
:1047B000804038BD044B40F2F3720449044806F0CF
:1047C0007FF8F4E7704700BFC4BF00084CC1000881
:1047D00064BA000880B138B50C460546037D012B4C
:1047E00002D0C5F8904038BD044B40F60D02044994
:1047F000044806F065F8F4E7704700BFC4BF00083E
:1048000074C1000864BA000870B548B10D4614467A
:104810000646037D012B0BD0C6F88C50747770BD13
:10482000074B40F63D020749074806F049F8F6E70E
:10483000034B40F63E020549034806F041F8EBE71A
:10484000C4BF00089CC1000864BA0008B4C10008D5
:1048500008B530B1074B1868074A12681044186051
:1048600008BD064B40F6AF020549064806F028F899
:10487000F0E700BF0C00002088370020C4BF00080C
:10488000D4C1000864BA000838B505460C465AB1D0
:1048900044B1A38C33B1282B0ED9283B9BB29D4247
:1048A00028BF1D46284638BD044B40F6C5020449C2
:1048B000044806F005F8EBE70023F0E7C4BF000862
:1048C000F0C1000864BA0008F8B5002853D01E46AD
:1048D0000446002959D0037D002B60D10B6843604A
:1048E0000283007A002864D0FFF79CF90546002D6A
:1048F0007AD00CB1236823B915F1040F77D06B6817
:104900002360E78A27B9FFF757FDE082002871D0BE
:104910002046FFF79DFF0021616220650138606439
:10492000A065E0654FF4066363852385E162A4F822
:1049300060304FF406706086221D2946FFF7A4FF01
:1049400060860123A4F84830C4F88860022120461C
:1049500003F016FE0546002844D102232375002FDC
:1049600034D0264B1B68A34228D06BB3DA68A2422E
:1049700028D01346F9E7224B40F23542214922481C
:1049800005F09EFF6FF00F052CE01D4B40F2364204
:104990001E491D4805F094FF6FF00F0522E0184BEB
:1049A0004FF487621A49184805F08AFF6FF009052D
:1049B00018E0201D04F072FF054698E7DA680F4BF7
:1049C0001A6001E0E268DA600023E360114B1A68C4
:1049D000E2601C6004F0A0FA0F4B01221A7020461E
:1049E00003F0FCFF2846F8BD6FF00305FAE76FF00F
:1049F0000305F7E76FF00105F4E700BF80370020FB
:104A0000C4BF000818C2000864BA000834C2000815
:104A100050C20008783700207C37002010B50446CB
:104A2000406F18B1FFF75DFE0023636710BD000003
:104A300010B508B30446037D002B18BF0A2B1AD00B
:104A4000012B18D0806F18B1FFF7FAF90023A36784
:104A5000636F13B12046FFF7E1FF4FF6FF73238624
:104A6000E06EFFF73EFE206FFFF73BFE0023E3669C
:104A70002367A4F8683010BD034B40F65102034988
:104A8000034805F01DFFF6E7C4BF000880C2000818
:104A900064BA000838B505460C4649B185B12B68A3
:104AA000A34215D0CBB1DA68A24214D01346F9E77D
:104AB000254B40F683022549254805F001FFEDE727
:104AC000214B40F684022349214805F0F9FEE6E730
:104AD000DB682B6001E0E268DA600023E3602046D7
:104AE000FFF7A6FF237D0A2B18BF012B03D0638B92
:104AF00013F0010F21D1237D012B1AD0E36E33B1C6
:104B0000114B40F693021449114805F0D9FE236F6A
:104B100033B10D4B40F6940210490D4805F0D0FE1C
:104B2000636F33B1084B40F696020D49084805F013
:104B3000C7FE00232375E38238BD43F0020363837D
:104B4000204603F04BFFD6E7C4BF00089CC2000814
:104B500064BA0008B8C20008D8C20008F0C2000851
:104B60000CC300082DE9F04784B0F8B10D460446A7
:104B7000037D012B22D0237D0A2B27D0D4F850802F
:104B8000D4F82490D4F890602769002B47D1B4F86A
:104B900016A0BAF1000F4CD02D4B1B68A3421DD0BC
:104BA00013B3DA68A2421DD01346F9E7294B40F24D
:104BB0003D222949294805F083FE2DE0254B4FF47D
:104BC00010722749254805F07BFED4E72146254889
:104BD000FFF760FF2046FFF7E7FC1DE0DA681C4B9B
:104BE0001A6001E0E268DA600025E560AA46206FFD
:104BF00008B1FFF776FDE06E08B1FFF772FD606F58
:104C000008B1FFF76EFDB5B92046FFF7CDFC1EB128
:104C10006FF00C013846B04704B0BDE8F087B4F837
:104C200016A021461048FFF735FF104B01221A70DD
:104C3000DDE70025DBE7231D228B0292CDF804A0DF
:104C4000009323464A464146204603F045FEDBE7F3
:104C500080370020C4BF000824C3000864BA0008DD
:104C600040C3000890370020783700207C370020B0
:104C700008B50121FFF776FF08BD000008B50A4B13
:104C80001B684FF0000C604600E0DB6843B1196A16
:104C9000064A1268521A6245F7D394461846F4E75A
:104CA00008B1FFF7E5FF08BD9037002088370020E6
:104CB00010F0800F01D108B970477F2038B5013856
:104CC000C2B20F4B1B684FF0000C604607E00D4A64
:104CD0001268186AA2EB000C0A461846DB685BB142
:104CE000597D9142F3D3F9D1064C24681D6AA4EB97
:104CF000050EE645F2D3EAE708B1FFF7B9FF38BD84
:104D0000783700208837002070B50C46054660B91A
:104D10000A4B4FF410620A490A4805F0D1FD04E03D
:104D2000E6682046FFF7A4FF34462CB122682B68C2
:104D30009A42F5D0E468F8E770BD00BFC4BF000830
:104D400074C3000864BA000800B338B50D460446C1
:104D5000036803B938BD0E4B1968FFF7D5FF0D4B3B
:104D600019682046FFF7D0FF002DF3D02B68002BE9
:104D7000F0D0094B1B6800E0DB68002BEAD0196813
:104D800022689142F8D12A681A60F5E7704700BF9F
:104D900078370020803700208437002038B504465B
:104DA000A0F10803DBB2012B04D8104B1B680021D3
:104DB000084608E00E4B40F2DD620E490E4805F051
:104DC0007FFDF2E7DB685BB11A7DA242FAD10B4AA4
:104DD00012681D6A521B8A42F4D311461846F1E745
:104DE00010B10021FFF7BEFE38BD00BF78370020AC
:104DF000C4BF0008A8C3000864BA000888370020B0
:104E000038B50546012000F0E9FD044668B354B307
:104E10009C220021204605F04BFD65754FF486630A
:104E2000A4F864304FF4066262852285FF22E272A4
:104E30004FF4067262860622A4F84020E2874FF6FD
:104E4000FF7222860122A4F848201A4A12682262C0
:104E5000194A1278A277A4F84A30184BC4F8843063
:104E6000174BC4F89430204638BDFFF77BFBFFF7A3
:104E700005FF012000F0B2FD04460028C7D109203B
:104E8000FFF78CFF012000F0A9FD04460028BED1E9
:104E90000820FFF783FF012000F0A0FD0446002852
:104EA000B5D12846FFF704FF012000F097FD044626
:104EB000ADE700BF883700208D370020595000082B
:104EC00000DD6D0008B54020FFF79AFF08BD000027
:104ED00030B585B00D46044628B3002D2FD0237D74
:104EE000072B18BF042B2AD1A36F23B3638B13F0B6
:104EF000100F2ED0231D228B0292E28A0192009382
:104F00002346626A216D204603F0E6FC2046FFF747
:104F10008FFD384B1B68A34223D043B3DA68A2420B
:104F200023D01346F9E7344B4FF4AF72334934487A
:104F300005F0C6FCD1E7238DB3F5066FD6D1237DEE
:104F4000012B3FD0022B49D013B32046FFF7C8FAFC
:104F500036E0294B4FF4B2722A49294805F0B0FCDB
:104F6000C8E7DA68234B1A6001E0E268DA600023E0
:104F7000E360254B01221A70244B1B68A34204D026
:104F80002046FFF711FB00201AE002F099FCFAE737
:104F9000E38A8BB11E4B1B68A34205D053B1DA687C
:104FA000A24205D01346F9E7DA68194B1A6001E00E
:104FB000E268DA600023E3602046FFF7F5FA00209C
:104FC00005B030BD2046FFF745FA21461148FFF7EE
:104FD00061FD2046FFF76CFA0020F1E72146054805
:104FE000FFF758FD084B01221A702046FFF7DCFA44
:104FF0000020E5E778370020C4BF0008B8C30008E8
:1050000064BA0008D8C300087C370020246D002053
:10501000803700208437002008B560B10346027D48
:10502000012A03D0428B42F010024283012118462C
:10503000FFF74EFF08BD054B4FF4F47204490548D5
:1050400005F03EFC6FF00F00F4E700BFC4BF00089E
:10505000F4C3000864BA000810B551B114460846FC
:105060008AB11189FFF7F4FA2046FEF7E9FE002025
:1050700010BD084B4FF4D3620749084805F020FCE7
:105080006FF00F00F4E70BB10020F1E7FFF7C4FF6A
:10509000EEE700BFC4BF00080CC4000864BA0008F3
:1050A000F8B518B30446866F777B00238367D0F882
:1050B00084502DB3324601460069A84705463DBBE2
:1050C00017F0200F2AD0238DB3F5066F01D00133DE
:1050D0002385D4F884600EB300231A462146206944
:1050E000B04710F10D0F19D1054617E00C4B40F2F7
:1050F00009620C490C4805F0E3FB6FF00F050DE069
:105100000023324601461846FFF7A6FF0546D6E7BC
:1051100015F10D0F02D0A6676FF004052846F8BD03
:10512000C4BF000828C4000864BA000870B51C4A4F
:105130001378013313701B4B1C6813E043F0020318
:105140006383204603F04AFC638B23F003036383ED
:1051500013E023F0080363832046FFF7C1F910E052
:10516000E5682C46DCB1A27F0D4B1B789A42F7D044
:10517000A377638B13F0010FE0D1638B13F0080F5B
:10518000E7D1E568A36F002BEBD0074E0023337007
:105190002046FFF785FF3378002BE2D0CBE770BDC8
:1051A0008D370020783700207C3700202DE9F04132
:1051B00084B0994A136801331360984A1378013315
:1051C0001370974B1C68002592E1964B40F2BE424B
:1051D0009549964805F074FB90E1924B40F2BF422E
:1051E0009349924805F06CFB8CE18E4B4FF498622A
:1051F00090498E4805F064FB88E12546E46877E134
:1052000094F84230052B40F28C8101266EE0854BEC
:1052100040F2D5428849854805F052FB98E1204686
:1052200003F0D2F858B1002384F8983094F89930FC
:10523000062B7CD8013384F89930002656E02046AE
:1052400003F0CCFB0028EED100264FE0B4F930305B
:105250009BB247F6FE72934201D801332386B4F91C
:105260003020B4F940309A4240DB204603F06AFA1D
:1052700020B1236F002B39D1E36EBBB3237D022B0A
:1052800014D094F842200C2A28BF0C22B4F93C1008
:10529000B4F93E3003EBE10368498A5C934047F67A
:1052A000FE7293421EDC1BB2A4F84030002323861A
:1052B000B4F86030B4F84820934228BF13465B0826
:1052C000A4F84A30618E4A0092B2934201D2A4F807
:1052D0004A20A4F848100023A4F86A30204603F0BE
:1052E000D3FC03E047F6FF73DEE70126237D062BA0
:1052F0001FD0627A12F0080742D0072B18BF042B88
:105300003DD1454B1A68236AD21AD4F894104C4BFD
:105310000B444C48A0FB0303B2EB531F16D90136D4
:10532000F6B201272CE00126E0E70026DEE70026A2
:10533000DCE7628B12F0100FDBD0216A364A12686C
:10534000521A282AD5D90136F6B2D2E794F89B3002
:105350003D4800FB03113B4BA3FB0131B2EB511F56
:1053600001D800270CE0204603F0C4FC00283AD105
:1053700094F89B30013384F89B30002700E000272D
:10538000636F53B1236A244A1268D21AB4F94030C9
:1053900003EB4303B2EB430F27D2237D032B28D02B
:1053A000092B2FD0002E53D1E668237F0133DBB2C7
:1053B0002377627F9342C0F0998000232377234AAA
:1053C0001370D4F88C30002B00F0888021462069BF
:1053D00098471E4B1B78002B7FF4F3AE00287FD03C
:1053E0002546344684E00027CAE72046FFF716FB2F
:1053F000D3E7216A084A1268521A282AD0D90136FE
:10540000F6B2CDE7226A044B1B689B1AF02BC9D970
:105410000136F6B2C6E700BF883700208D3700207E
:1054200078370020C4BF000850C4000864BA0008E0
:105430007CC40008A8C400080CC500081CC60008ED
:10544000B84C0A00D34D6210F82401007C370020CC
:10545000D4F890602046FFF7EBFA1DB36F4B1B6842
:10546000A34217D0E368EB605FBBD4F81080E76815
:105470002046FFF799F86A4B00221A701EB16FF0B0
:105480000C014046B047664B1B78002B7FF499AE69
:105490003C462DE0634B40F26D526349634805F092
:1054A0000FFADFE75D4B1B68A34206D05D4B40F26D
:1054B00071525F495D4805F003FAE268574B1A6084
:1054C000D2E7231D626A216D208B0290E08A019051
:1054D00000932346204603F0FFF9C6E7002078E753
:1054E000204603F07BFA2546344601E02546344643
:1054F000002C50D0237D002B3FF467AE237D012B81
:105500003FF46BAE237D0A2B3FF46FAEA27F494B75
:105510001B789A423FF471AEA377237D022B3FF4B0
:105520006FAE94F842300B2B3FF6DFAE94F89960E3
:10553000002E3FF48BAE236F33B13A4B40F2D4428E
:105540003D493A4805F0BCF9E36E002B3FF45FAEED
:1055500094F89A300B2B3FF6E6AE94F89930013B65
:10556000364AD25C94F89830934202D2013384F8E0
:10557000983094F898309342FFF4D7AEB4F86010A6
:1055800000297FF44CAE204603F0E2FB00283FF4F4
:105590004AAE0026AAE62A4B1D6807E02A6A294B74
:1055A0001B689B1AF02B0ED82C46ED68002D31D0CD
:1055B0002B7D0A2BF2D01B4B40F2A15222491B48F3
:1055C00005F07EF9EAE72846FFF732FA9CB11C4B5A
:1055D0001B68AB4207D0EB68E360EE682846FEF735
:1055E000E3FF3546E2E70F4B40F2AF5217490F4851
:1055F00005F066F9EFE7124B1B68AB4206D0094B8A
:1056000040F2B3521249094805F05AF9EA680C4BC6
:105610001A60E2E704B0BDE8F08100BF78370020EF
:105620007C370020C4BF000844C5000864BA0008E5
:1056300070C500088D370020D8C400083CC600089B
:1056400090370020883700209CC50008CCC5000892
:10565000F4C5000808B5FFF769FD064A1378013361
:10566000DBB2137013F0010F00D108BDFFF79EFDF0
:10567000FBE700BF8C370020030A43EA002080B21A
:105680007047030203F47F0343EA0063020A02F453
:105690007F42134343EA106070470000F8B50E469E
:1056A00015460746C8B1FEB13C7A3CB11E4B5B685B
:1056B00093F830300133DBB29C4225D1DDB12FB3FA
:1056C0003B682BB3184A5269B2F1FF3F22D0B16850
:1056D00053400B4220D0002017E0144B872214497E
:1056E000144805F0EDF8DEE7104B88221249114806
:1056F00005F0E6F8D8E78FB13B688BB10A4A5269EA
:1057000093420FD0284600E00020F8BD0120FCE7BE
:105710000120FAE70120F8E70120F6E70120F4E78D
:105720000120F2E70120F0E78466002044C600086B
:1057300070C6000864BA000894C6000808B505F0F1
:10574000D7F8024B0343024A138008BD00C0FFFF95
:10575000120000202DE9F04F83B00F468146D0B1F2
:1057600007B3B9F80A30072B23D9D9F80440524BB4
:105770001968586904F00CFF80462088FFF77CFF09
:1057800082466088FFF778FF05464C4B1C684FF057
:10579000000B5E4619E04A4BCF224A494A4805F0C1
:1057A0008FF8DDE7464BD0224849474805F088F896
:1057B000D7E74846FEF744FB03B0BDE8F08FA346A9
:1057C000A38A534526D02646E468002C2FD0638A4E
:1057D000AB42F8D1424639462046FFF75FFF00282A
:1057E000F1D0237C13F0040FEAD1BBF1000FE6D017
:1057F000B8F1000FE4D0304B5B69B3F1FF3FDFD16C
:10580000DBF800207B689A42DAD022689342D7D135
:10581000A346D5E763681BB1274A12699342D2D1E8
:105820002EB1E368F360254B1A68E2601C6084B116
:105830008CB108214846FEF7BDFAA8B91CB3A5698A
:10584000EDB1E069CDF800A0214B4A462146A847BA
:10585000B2E75C46ECE77A68174B5B699A42E8D09E
:105860004846FEF7EDFAA7E7154B4FF4B872194911
:10587000154805F025F84846FEF7E2FA9CE7484649
:10588000FEF7DEFA98E7B8F1000F05D10A4B5B6925
:1058900003F0F003E02B03D14846FEF7D1FA8BE783
:1058A000054B9989083109B24846FEF7C3FA03212E
:1058B000484604F085FFEFE7846600209437002017
:1058C00044C60008BCC6000864BA0008D4C6000874
:1058D00094660020F0C60008B8B102460368A3B180
:1058E00099B10B688BB1094B1B686BB110B401E027
:1058F000DB6833B110681C688442F9D1086818600D
:10590000F6E75DF8044B7047704770479437002006
:1059100008B500F053F900F051F8FEF72FF8FFF743
:105920000DFFFEF735FE03F031FB08BD10B58368AF
:105930001C6824B122681A6014F0030F01D12046BC
:1059400010BD044B4FF48C720349044804F0B8FFB7
:10595000F5E700BF0CC700083CC7000864BA0008A0
:1059600038B505460C4611F0030F05D1AB681B682E
:105970002360AB681C6038BD034B4FF4B67203491B
:10598000034804F09DFFF1E70CC7000860C700085A
:1059900064BA0008836800221A604368033323F066
:1059A000030307E081680968196081680B6001885A
:1059B0000B44013241889142F4DC704710B5002459
:1059C00006E0054B53F82400FFF7E4FF0134A4B2CE
:1059D000082CF6D910BD00BF28C8000808B5082853
:1059E00005D8074B53F82000FFF7A0FF08BD054B73
:1059F00040F257120449054804F062FF0020F5E721
:105A000028C800080CC7000880C7000864BA00084E
:105A100008B5082806D821B1064B53F82000FFF737
:105A20009FFF08BD044B4FF4D5720449044804F0AD
:105A300047FFF6E728C800080CC70008A0C7000801
:105A400064BA0008014B1B6818447047A066002028
:105A5000024B1B68C01A80B2704700BFA0660020CE
:105A6000F8B50446FFF7F4FF074625882846FFF7F8
:105A7000E9FF064664882046FFF7E4FFB5F5C86FE6
:105A800010D8B4F5C86F0FD8BC4202D00388BB420F
:105A90000CD1094B1B68B3420AD07388BB4209D1B1
:105AA000012000E00020F8BD0020FCE70020FAE71C
:105AB0000120F8E70020F6E7A466002038B5044688
:105AC000354B1B68834240D8344B1B68A34244D9F2
:105AD0002379002B49D12388B3F5C86F4DD820888E
