:020000040800F2
:1000000000000520559800080509000807090008A8
:10001000090900080B0900080D090008000000008C
:100020000000000000000000000000000F090008B0
:100030001109000800000000130900081509000854
:10004000A5980008A5980008A5980008A59800089C
:10005000A5980008A5980008A5980008A59800088C
:10006000A5980008A5980008A5980008A59800087C
:10007000A5980008A5980008A5980008A59800086C
:10008000A5980008A5980008A5980008A59800085C
:10009000A5980008A5980008A5980008A59800084C
:1000A000A5980008A5980008A5980008A59800083C
:1000B000A5980008A5980008A5980008A59800082C
:1000C000A5980008A5980008A5980008A59800081C
:1000D000A5980008A5980008A5980008A59800080C
:1000E000A5980008A5980008A5980008A5980008FC
:1000F000A5980008A5980008A5980008A5980008EC
:10010000A5980008A5980008A5980008A5980008DB
:10011000A5980008A5980008A5980008A5980008CB
:10012000A5980008A5980008A5980008A5980008BB
:10013000A5980008A5980008A5980008A5980008AB
:10014000A5980008A5980008A5980008A59800089B
:10015000A5980008A5980008A5980008A59800088B
:10016000A5980008A5980008A5980008A59800087B
:10017000A5980008A5980008A598000800000000B0
:10018000A5980008A5980008A5980008A59800085B
:10019000A5980008A5980008A5980008A59800084B
:1001A000A5980008A5980008A5980008A59800083B
:1001B000A5980008A5980008A5980008A59800082B
:0801C000A5980008A5980008AD
:1001D00010B5054C237833B9044B13B10448AFF381
:1001E00000800123237010BD780000200000000073
:1001F0007CAA000808B5034B1BB103490348AFF3C1
:10020000008008BD000000007C0000207CAA0008DF
:1002100001F0FF01102A2BDB10F0070F08D010F8B7
:10022000013B013A8B422DD010F0070F42B3F6D1BB
:10023000F0B441EA012141EA014122F007047FF0D4
:1002400000070023F0E80256083C85EA010586EA2B
:10025000010685FA47F5A3FA87F586FA47F6A5FA67
:1002600087F68EB9EED1F0BC01F0FF0102F0070273
:1002700032B110F8013B013A83EA010313B1F8D11E
:100280000020704701387047002D06BF35460338FF
:10029000073815F0010F07D1013015F4807F02BF38
:1002A000013015F4C03F0130F0BC0138704700BF89
:1002B00053B94AB9002908BF00281CBF4FF0FF31CD
:1002C0004FF0FF3000F074B9ADF1080C6DE904CEC9
:1002D00000F006F8DDF804E0DDE9022304B0704721
:1002E0002DE9F047089D04468E46002B4DD18A42E9
:1002F000944669D9B2FA82F252B101FA02F3C2F11C
:10030000200120FA01F10CFA02FC41EA030E9440AC
:100310004FEA1C48210CBEFBF8F61FFA8CF708FBCD
:1003200016E341EA034306FB07F199420AD91CEBA5
:10033000030306F1FF3080F01F81994240F21C81D7
:10034000023E63445B1AA4B2B3FBF8F008FB10331F
:1003500044EA034400FB07F7A7420AD91CEB040454
:1003600000F1FF3380F00A81A74240F20781644424
:10037000023840EA0640E41B00261DB1D4400023A9
:10038000C5E900433146BDE8F0878B4209D9002D0D
:1003900000F0EF800026C5E9000130463146BDE897
:1003A000F087B3FA83F6002E4AD18B4202D3824201
:1003B00000F2F980841A61EB030301209E46002DB0
:1003C000E0D0C5E9004EDDE702B9FFDEB2FA82F205
:1003D000002A40F09280A1EB0C014FEA1C471FFA63
:1003E0008CFE0126200CB1FBF7F307FB131140EA4A
:1003F00001410EFB03F0884208D91CEB010103F117
:10040000FF3802D2884200F2CB804346091AA4B2D8
:10041000B1FBF7F007FB101144EA01440EFB00FEAC
:10042000A64508D91CEB040400F1FF3102D2A64511
:1004300000F2BB800846A4EB0E0440EA03409CE7B0
:10044000C6F12007B34022FA07FC4CEA030C20FA5D
:1004500007F401FA06F31C43F9404FEA1C4900FA7D
:1004600006F3B1FBF9F8200C1FFA8CFE09FB1811FA
:1004700040EA014108FB0EF0884202FA06F20BD96D
:100480001CEB010108F1FF3A80F08880884240F2BD
:100490008580A8F102086144091AA4B2B1FBF9F001
:1004A00009FB101144EA014100FB0EFE8E4508D9FC
:1004B0001CEB010100F1FF346CD28E456AD9023881
:1004C000614440EA0840A0FB0294A1EB0E01A14266
:1004D000C846A64656D353D05DB1B3EB080261EBD4
:1004E0000E0101FA07F722FA06F3F1401F43C5E9AE
:1004F000007100263146BDE8F087C2F12003D840E4
:100500000CFA02FC21FA03F3914001434FEA1C4725
:100510001FFA8CFEB3FBF7F007FB10360B0C43EA17
:10052000064300FB0EF69E4204FA02F408D91CEBC7
:10053000030300F1FF382FD29E422DD902386344C5
:100540009B1B89B2B3FBF7F607FB163341EA034165
:1005500006FB0EF38B4208D91CEB010106F1FF38B4
:1005600016D28B4214D9023E6144C91A46EA0046AB
:1005700038E72E46284605E70646E3E61846F8E63D
:100580004B45A9D2B9EB020864EB0C0E0138A3E786
:100590004646EAE7204694E74046D1E7D0467BE767
:1005A000023B614432E7304609E76444023842E7DF
:1005B000704700BF72B6FEE700B5B5B0302200212B
:1005C00028A809F0B3F900212391249125912691BF
:1005D0002791842202A809F0A9F902F063F8254BBB
:1005E0001A6C42F080521A641B6C03F08053009323
:1005F000009B214A136823F4404343F48043136073
:10060000136803F440430193019B012328934FF4A3
:10061000A023299302232E934FF480022F920422C9
:1006200030924822319232930323339328A801F069
:1006300001F9C8B90F2323930221249100232593A4
:100640004FF480522692279323A801F077FB68B9D4
:100650000A4B029300231593219302A801F04AFC50
:1006600030B935B05DF804FBFFF7A4FFFFF7A2FF38
:10067000FFF7A0FF0038024000700040000120009A
:1006800008B502F099F8FFF797FF00F007F800F0BF
:1006900083F800F0D3F800F059F9FEE7F0B58DB01B
:1006A00000240794089409940A940B94364B1A6B0F
:1006B00042F004021A631A6B02F004020192019ADA
:1006C0001A6B42F080021A631A6B02F080020292E7
:1006D000029A1A6B42F001021A631A6B02F00102CD
:1006E0000392039A1A6B42F002021A631A6B02F029
:1006F00002020492049A1A6B42F008021A631A6BFF
:1007000002F008020592059A1A6B42F040021A6341
:100710001B6B03F040030693069B1C4F22464FF4CD
:100720008141384601F0B8FF194D22464021284644
:1007300001F0B2FF4FF4005307934FF4881308936E
:10074000099407A9134801F0ABFE4FF481430793C6
:100750000126089609940A9407A9384601F0A0FEDC
:1007600040230793089609940A9407A9284601F0A4
:1007700097FE802307930894099407A9284601F05F
:100780008FFE0DB0F0BD00BF0038024000040240F3
:10079000001802400008024008B50B480B4B0360EC
:1007A0004FF4E133436000238360C36003610C2294
:1007B00042618361C3610362436202F0BAFA00B925
:1007C00008BDFFF7F7FEFBE794000020004800405B
:1007D00000B589B000230393049305930693079310
:1007E0000268144B9A4202D009B05DF804FB03F58D
:1007F000F8331A6C42F480221A641A6C02F48022D4
:100800000192019A1A6B42F008021A631B6B03F003
:1008100008030293029B4FF4407303930223049353
:10082000032306930723079303A9034801F038FE27
:10083000DAE700BF00480040000C024008B50C4851
:100840004FF0A0430360062343600222C2600023EE
:10085000036182610122C26103624362C262036377
:1008600002F098FA00B908BDFFF7A4FEFBE700BF4D
:100870001801002030B589B0002303930493059339
:10088000069307930368B3F1A04F01D009B030BDC0
:100890001A4C236B43F001032363236B03F0010322
:1008A0000093009B4FF4E853039302230493032324
:1008B00006930A230793124D03A9284601F0F0FD81
:1008C0004FF40073039300230493059303A9284670
:1008D00001F0E6FD636B43F080036363636B03F039
:1008E00080030193019B636C43F480436364636CF6
:1008F00003F480430293029BC8E700BF0038024024
:1009000000000240FEE7FEE7FEE7FEE7FEE7704775
:100910007047704708B501F05BFF08BD82B00A4B15
:100920001A6C42F080521A641A6C02F080520092E3
:10093000009A5A6C42F480425A645B6C03F4804320
:100940000193019B02B0704700380240F0B585B0BA
:100950003C4FC0203870A82179700123BB70FE2263
:10096000FA70394EFF2232707270B2700024F47047
:10097000364D28706970AB70EB7004F0A1FB3A78CB
:100980007B781B0443EA0263BA7843EA0223F978CE
:100990000B431A0202F47F0242EA0162190A01F4CF
:1009A0007F410A4342EA136329490B603278737826
:1009B0001B0443EA0263B27843EA0223F07803435C
:1009C0001A0202F47F0242EA0062180A00F47F4031
:1009D000024342EA13631F4A136028786B781B04B2
:1009E00043EA0063A87843EA0023ED782B4318021A
:1009F00000F47F0040EA05601D0A05F47F452843A6
:100A000040EA1360144B1860144D154802901548C5
:100A100001900094284602F083FD284602F012FE61
:100A200095F82D3013F0040F08D0284602F010FE80
:100A30000D490A4802F04AFE05B0F0BD074802F031
:100A400025FEF5E720050020240500201C050020D8
:100A500060050020640500205C05002028050020BA
:100A6000953200080D0D0008610D00082DE9F84FC2
:100A70008B462B4BDE6AD6F808A000242746BBF134
:100A8000000F32D03368002B35DBBBF80A9000250D
:100A900004EB090840F2F453984519D9DBF8041027
:100AA00040F2F452121B29440AEB040008F030FF14
:100AB000F6683368002B21DBD6F808A0A8F2F459B9
:100AC0002D1B05F2F4553F1B07F2F4570024DFE716
:100AD000DBF804104A4629440AEB040008F018FF2A
:100AE0004F44DBF800B04446C9E739460C4800F0F3
:100AF0008FFB002004E06FF0070001E06FF00700BB
:100B0000074B1B6803F58052526912F0200F05D085
:100B100003F5805320225A6100225A60BDE8F88F05
:100B20000836002030B583B004462E482E4B0360B3
:100B3000012343604FF4804383604FF40063C3603C
:100B4000002303828DF8003080228DF80120E122FD
:100B50008DF802208DF803308DF804308DF80530C3
:100B6000C0F814D08361C3614FF40003036200F046
:100B70005BFC28B994F82D3043F0040384F82D3041
:100B8000184D0423194A1A49284600F0C2FA0423D2
:100B9000184A1949284600F0FCFA062384F82C303C
:100BA0006B691A7884F826205A7884F827209A7876
:100BB00084F82820DA7884F829201A7984F82A2001
:100BC0005B7984F82B3040F2DC53A38494F82D3009
:100BD00043F00A0384F82D30284600F04FFD03B09F
:100BE00030BD00BF0836002000800240381E0020C3
:100BF000E80500206806002068050020F0B58DB0EB
:100C000000230793089309930A930B9302683A4BC6
:100C10009A4201D00DB0F0BDA3F590431A6B42F09B
:100C200000721A631A6B02F000720092009A1A6B3B
:100C300042F080621A631A6B02F080620192019A9C
:100C40001A6B42F000621A631A6B02F000620292A1
:100C5000029A1A6B42F004021A631A6B02F0040241
:100C60000392039A1A6B42F001021A631A6B02F0A4
:100C700001020492049A1A6B42F002021A631A6B80
:100C800002F002020592059A1A6B42F040021A63C2
:100C90001B6B03F040030693069B32230793022647
:100CA000089603250A950B240B9407A9134801F015
:100CB000F7FB862307930896002709970A950B945C
:100CC00007A90F4801F0ECFB4FF400530793089677
:100CD00009970A950B9407A90A4801F0E1FB4FF424
:100CE00020530793089609970A950B9407A906487D
:100CF00001F0D6FB8EE700BF0080024000080240F2
:100D000000000240000402400018024010B50446F2
:100D100070B1732384F82E30742384F82F30084B7D
:100D20006361084BA3612046FFF7FCFE002010BD65
:100D3000054B40F206220549054808F0FFFDE8E7AB
:100D4000A59400086D0A000894AA0008B0AA00083B
:100D5000C0AA000808B501F047FD08BD70470000B3
:100D600030B583B0044600230193009390F82D30F2
:100D700013F0040F51D02B4B5B68002B35D04FF490
:100D800080520021274800F015FB01F02DFD019055
:100D90006A460121234800F0D1FA01F025FD019BAC
:100DA000C31AB3F57A7F20D8009B13F0200FEFD041
:100DB0006A4610211B4800F0C1FA009B13F0040F93
:100DC0000AD0184A4FF40061D16013F0020F07D027
:100DD000144B00229A6013E0124A0021D160F4E71C
:100DE000104B4FF480429A600AE00E48C268C2F38A
:100DF000CF028368C3F34F031A43002100F0DAFAED
:100E0000084D0021284600F07DFC284600F036FC05
:100E10002046FFF7A3FF03B030BD024800F050FCAE
:100E2000F6E700BF083600205079137943EA002323
:100E300007480B50D07893781B0443EA006350783E
:100E400043EA002312781343024A8B50704700BFD5
:100E50004080024044800240036803F580539A6951
:100E600042F400529A617047036803F580539A690F
:100E700022F400529A617047036803F580539A691F
:100E800042F002029A617047036803F580539A6941
:100E900022F002029A6170472DE9F041AEB005469A
:100EA00029B14FF40063C3604FF480438360002393
:100EB000119312931393149315931693EB69002BCC
:100EC00040F0A3804FF4806317934FF4007318939E
:100ED000002419941A941B941C941D9440271E9767
:100EE0001F9420942194229423942494259426944E
:100EF00080262796289429942A942B942C942D9418
:100F000029680B68464A1A40AB68E868034317989B
:100F1000034343F4007313430B602B68D3F8008042
:100F2000012001F067FC2B68C3F800802B685F602C
:100F30002B685F68012001F05DFC2B685F602B6807
:100F40009C602B68DC602A68936923F0BE031B0455
:100F50001B0C334393612B689F69012001F04AFC0D
:100F60002B689F612B68DC612B68DF69012001F031
:100F700041FC2B68DF6101944FF0007302930394EE
:100F80004FF40012049205940694079408940422E6
:100F900009920A934FF480330B934FF480030C9320
:100FA0004FF400530D930E960F9410942B6803F595
:100FB00080539A691B4911401B4A0A439A612B6866
:100FC00003F580539C69012001F014FC2B6803F5A4
:100FD00080539C612B6803F58053144A1A602B6878
:100FE00003F580531C68012001F004FC2B6803F515
:100FF00080531C60AB69012B0AD06A690021284626
:10100000FFF712FF2EB0BDE8F081002317935CE7D5
:101010002B6803F58053D969054A0A43DA61ECE786
:101020000F8120FF233FDEF8040020028020C10250
:101030004000010010B582B004460023019302680D
:10104000136843F00803136003681B6801930120D1
:1010500001F0D0FB2368019A1A6002B010BD10B5F0
:1010600082B00446002301930268136843F004032E
:10107000136003681B680193012001F0BBFB236828
:10108000019A1A6002B010BD10B582B00446002368
:101090000193036803F580539A6942F480129A61C0
:1010A000036803F580539B690193012001F0A2FBC3
:1010B0002368019A03F580539A6102B010BD10B500
:1010C00082B00446002301930268136823F00403EE
:1010D000136003681B680193012001F08BFB2368F8
:1010E000019A1A6002B010BD10B582B00446002308
:1010F00001930268136823F00803136003681B68F8
:101100000193012001F076FB2368019A1A6002B076
:1011100010BD30B590F84540012C38D0012480F83E
:101120004540022480F84440C1624FF0000C03E0C7
:10113000CEF80C100CF1010C9C451CD24FEA4C155A
:1011400001EB4C1E4FF480144C5140F2F45404FB5C
:101150000C24CEF80840C4691CB94C5944F440042E
:101160004C515C1E6445E3D90CF1010401EB4414BD
:10117000CEF80C40DEE7036803F5805319610123C4
:1011800080F84430002380F84530184630BD0220F6
:10119000FCE730B590F84540012C36D0012480F8AA
:1011A0004540022480F8444081624FF0000C03E087
:1011B000CEF80C100CF1010C9C451AD24FEA4C14DD
:1011C00001EB4C1E4FF000450D5144F2F454CEF8A3
:1011D000044040F2F45404FB0C24CEF808405C1E9A
:1011E0006445E5D90CF1010401EB4414CEF80C4040
:1011F000E0E7036803F58053D960012380F84430A9
:10120000002380F84530184630BD0220FCE700007E
:1012100090F84530012B00F08A80012380F845309A
:10122000022380F84430C9B1C36A1A68002A1DDB62
:1012300010B440F2F452914220D93E4AA2FB012C54
:101240004FEA9C2C40F2F45202FB1C120AB10CF142
:10125000010CBCF1010F11D000234AE0012380F8FA
:101260004430002280F8452018467047122380F849
:101270004430002380F84530012070471A6842F05E
:1012800040521A60C36AC1F30C015960C26A136804
:1012900043F000431360C36ADB68C362036803F56D
:1012A0008052526912F0040F08D003F580530422D3
:1012B0005A61036803F5805300225A60012380F8C5
:1012C0004430002380F8453018465DF8044B7047E1
:1012D000C26A40F2F45454600CF1FF329A4217D0C3
:1012E000C46A226842F000422260C26AD268C262C6
:1012F00001339C45D2D9C46A226822F04052226050
:10130000002BE5D1C46A226842F080522260DFE7F8
:10131000C46A226842F000522260074A02FB0C12A3
:1013200002F2F452C46AC2F30C026260D8E70220EF
:10133000704700BF0BB002AC0CFAFFFFF8B590F895
:101340004430DBB2822B33D005461646822380F828
:1013500044300068026902F01C022B8ADB029BB257
:1013600013438C0104F4F8641C4344F00104046149
:1013700001F03AFA074601E02B681C6914F0010FEE
:101380000DD001F031FAC31BB3F5803FF4D3012334
:1013900085F84430002385F84530032007E02B68AA
:1013A0005B699BB23360012385F844300020F8BDAF
:1013B0000220FCE790F84430DBB2422B32D070B50B
:1013C0000546422380F844300668306900F01C006E
:1013D0002B8ADB029BB203438C0104F4F8641C43A8
:1013E00044F0030492B272612B681C6101F0FCF9B5
:1013F000064601E02B681C6914F0010F0DD001F0C6
:10140000F3F9831BB3F5803FF4D3012385F844300F
:10141000002385F84530032003E0012385F844309C
:10142000002070BD0220704770B582B00023019388
:10143000002800F00C81044690F84430002B32D094
:10144000844B5A6C42F480425A645B6C03F48043D0
:101450000093009B804B5A6822F400025A605A683D
:10146000216A0A435A60236803F580531A6842F0E0
:1014700001021A6001F0B8F90546236803F58052AD
:10148000126812F0010F13D001F0AEF9401BB0F555
:10149000FA7FF2D9032584F84450002384F84530BC
:1014A000284602B070BD80F84530FFF7A7FBC7E7BC
:1014B0001D6925F01C0500F0F7FC684B0344684AE1
:1014C000934255D245F0080523681D614FF4004250
:1014D00000212046FFF76EFF0546002860D1FF205F
:1014E00001F088F96368002B00F0918001F07CF92D
:1014F000064601AA01212046FFF720FF01F074F9FA
:10150000801B41F28833984252D8019B13F0040F9C
:10151000EFD04FF4805200212046FFF74BFF002808
:1015200052D101F061F9064601AA01212046FFF7D8
:1015300005FF01F059F9801B41F2883398424BD8DE
:10154000019B13F0200FEFD001AA10212046FFF7D6
:10155000F5FE00284CD1019B13F0040F50D04FF43E
:101560000062E26013F0020F4DD00023A3605EE042
:101570003C4B03443C4A934202D845F00C05A3E798
:101580003A4B03443A4A93429ED33A4B03443A4A75
:10159000934202D845F0040596E745F0100593E71D
:1015A00001212046FFF778FC012584F8445077E7B5
:1015B00001212046FFF770FC012384F8443000230A
:1015C00084F8453003256BE701212046FFF764FCD2
:1015D000012584F8445063E701212046FFF75CFCB5
:1015E000012384F84430002384F84530032557E76D
:1015F00001212046FFF750FC012584F844504FE7B5
:101600000022E260AEE74FF48043A3600FE0E2689F
:10161000C2F3CF02A368C3F34F031A43002120464D
:10162000FFF7C8FE58B940F6FF7001F0E3F800215B
:101630002046FFF731FC012384F8443030E70121D4
:101640002046FFF729FC012584F8445028E70125AE
:1016500026E700BF003802400038014000D3CEFE2C
:10166000C0E1E40040F1E9FD3F787D0100796CFCC8
:10167000005A6202001F0AFA7FF0FA0238B590F8A9
:101680004530012B1AD00446012580F8455002232D
:1016900080F84430FFF7CEFC2046FFF7E0FC204600
:1016A000FFF7F2FC2046FFF7D7FB2046FFF7E4FBED
:1016B00084F84450002084F8450038BD0220FCE73F
:1016C00038B590F84530012B1AD00446012580F832
:1016D0004550022380F84430FFF7C6FB2046FFF751
:1016E000D3FB2046FFF7EBFC2046FFF7CDFC20465E
:1016F000FFF7FAFC84F84450002084F8450038BD18
:101700000220FCE790F84530012B00F08E8070B588
:1017100005460C46012380F84530022380F844300A
:10172000002971D002681368414919402368606834
:101730000343A0680343E0680343A86803432069A8
:10174000034360690343E8680343A0690343E06916
:101750000343206A0343606A0343A06A03430B43C5
:1017600013602B681E68012001F044F82B681E608E
:10177000E36A226B1343626B1343A26B1343E26B66
:101780001343226C1343626C1343A16C2A680B430E
:1017900053602B685E68012001F02CF82B685E60B6
:1017A0002B68E26C9A602B68226DDA6029688A697E
:1017B00022F0BE021204120C606DA36D43EA0043D6
:1017C000E06D0343206E0343606E0343A06E03434A
:1017D00013438B612B689E69012001F00BF82B6885
:1017E0009E61E36E216F2A680B43D3612B68DC692D
:1017F000012000F0FFFF2B68DC61012385F84430F5
:10180000002085F8450070BD01680A6822F4904206
:101810008368C068034313430B602B681C68012076
:1018200000F0E8FF2B681C60E7E70220704700BF6C
:101830000F8120FF002800F0FF8170B582B00446C0
:10184000036813F0010F29D0954B9B6803F00C033C
:10185000042B1AD0924B9B6803F00C03082B0FD07B
:101860006368B3F5803F40D0002B54D18C4B1A688D
:1018700022F480321A601A6822F480221A6039E059
:10188000874B5B6813F4800FEAD0854B1B6813F419
:10189000003F03D06368002B00F0D081236813F071
:1018A000020F74D07E4B9B6813F00C0F5ED07C4B04
:1018B0009B6803F00C03082B53D0E368002B00F067
:1018C0008980774A136843F00103136000F08CFFAE
:1018D0000546734B1B6813F0020F72D100F084FFB2
:1018E000401B0228F5D90320ADE16D4A136843F48B
:1018F0008033136063682BB300F076FF0546684BB6
:101900001B6813F4003FC9D100F06EFF401B642830
:10191000F5D9032097E1B3F5A02F09D0604B1A68E1
:1019200022F480321A601A6822F480221A60E1E7F9
:101930005B4B1A6842F480221A601A6842F48032C3
:101940001A60D7E700F050FF0546554B1B6813F4AB
:10195000003FA3D000F048FF401B6428F5D90320C6
:1019600071E14F4B5B6813F4800FA6D14C4B1B68A1
:1019700013F0020F03D0E368012B40F06181484A65
:10198000136823F0F803216943EAC1031360236855
:1019900013F0080F46D0636983B3414A536F43F095
:1019A0000103536700F020FF05463D4B5B6F13F0CA
:1019B000020F37D100F018FF401B0228F5D9032091
:1019C00041E1374A136823F0F803216943EAC10370
:1019D0001360DCE7324A136823F00103136000F060
:1019E00003FF05462E4B1B6813F0020FCFD000F00B
:1019F000FBFE401B0228F5D9032024E1284A536F3F
:101A000023F00103536700F0EFFE0546244B5B6FA4
:101A100013F0020F06D000F0E7FE401B0228F5D9B4
:101A2000032010E1236813F0040F7DD01C4B1B6CC6
:101A300013F0805F1ED11A4B1A6C42F080521A6468
:101A40001B6C03F080530193019B0125154B1B6810
:101A500013F4807F10D0A368012B25D0002B3BD13D
:101A60000F4B1A6F22F001021A671A6F22F004025C
:101A70001A671EE00025E9E70A4A136843F48073F9
:101A8000136000F0B1FE0646064B1B6813F4807F1E
:101A9000E1D100F0A9FE801B6428F5D90320D2E033
:101AA00000380240007000406E4A136F43F001039B
:101AB0001367A36833B300F097FE0646694B1B6FAC
:101AC00013F0020F2FD100F08FFE801B41F28833FC
:101AD0009842F3D90320B6E0052B09D0614B1A6F69
:101AE00022F001021A671A6F22F004021A67E0E777
:101AF0005C4B1A6F42F004021A671A6F42F001023F
:101B00001A67D6E700F070FE0646564B1B6F13F0BF
:101B1000020F08D000F068FE801B41F28833984223
:101B2000F3D903208FE0FDB9A369002B00F08A8070
:101B30004C4A926802F00C02082A58D0022B19D0A5
:101B4000484A136823F08073136000F04DFE04468A
:101B5000444B1B6813F0007F47D000F045FE001B8C
:101B60000228F5D903206EE03E4A136C23F080531F
:101B70001364D9E73B4A136823F08073136000F0C5
:101B800033FE0546374B1B6813F0007F06D000F08C
:101B90002BFE401B0228F5D9032054E0E369226A9A
:101BA0001343626A43EA8213A26A5208013A43EA83
:101BB0000243E26A43EA026343F00053294A536056
:101BC000136843F08073136000F00EFE0446254B4B
:101BD0001B6813F0007F06D100F006FE001B0228F0
:101BE000F5D903202FE000202DE000202BE01D4A36
:101BF0005268012B29D002F48003E1698B4226D17F
:101C000002F03F03216A8B4223D1616A47F6C07319
:101C10001340B3EB811F1ED102F44031A36A5B086D
:101C2000013BB1EB034F18D102F07062E36AB2EBF3
:101C3000036F14D1002006E001207047012002E06C
:101C4000012000E0002002B070BD0120FBE7012070
:101C5000F9E70120F7E70120F5E70120F3E701208C
:101C6000F1E700BF0038024008B5314B9B6803F034
:101C70000C03042B57D0082B57D12D4B5A6802F078
:101C80003F025B6813F4800F2AD0294B5968C1F3D7
:101C9000881C4FEA4C11B1EB0C006EEB0E0E4FEAB4
:101CA0008E1343EA90638101091A63EB0E03DB0094
:101CB00043EA5173C90011EB0C0C43F100035902C4
:101CC00000234FEA4C2041EADC51FEF7F1FA184BB1
:101CD0005B68C3F3014301335B00B0FBF3F025E025
:101CE000134B5968C1F3881C4FEA4C11B1EB0C003F
:101CF0006EEB0E0E4FEA8E1343EA90638101091AD0
:101D000063EB0E03DB0043EA5173C90011EB0C0CCB
:101D100043F10003990200234FEA8C2041EA9C51D1
:101D2000FEF7C6FAD3E7034800E0034808BD00BF4A
:101D30000038024000127A000024F400002800F06D
:101D4000A08070B50D460446524B1B6803F00F038C
:101D50008B420BD24F4A136823F00F030B431360DF
:101D6000136803F00F038B4240F08D80236813F05B
:101D7000020F17D013F0040F04D0474A936843F4BE
:101D8000E0539360236813F0080F04D0424A93682D
:101D900043F460439360404A936823F0F003A168E2
:101DA0000B439360236813F0010F31D06368012B5C
:101DB00020D0022B25D0384A126812F0020F64D0CE
:101DC00035498A6822F0030213438B6000F00CFD52
:101DD0000646314B9B6803F00C036268B3EB820F3D
:101DE00016D000F001FD801B41F288339842F0D9F3
:101DF000032045E0284A126812F4003FE0D1012098
:101E00003EE0254A126812F0007FD9D1012037E068
:101E1000204B1B6803F00F03AB420AD91D4A13681D
:101E200023F00F032B431360136803F00F03AB423F
:101E30002DD1236813F0040F06D0174A936823F4BA
:101E4000E053E1680B439360236813F0080F07D059
:101E5000114A936823F46043216943EAC103936004
:101E6000FFF702FF0C4B9B68C3F303130B4AD35CD1
:101E7000D8400B4B18600B4B186800F077FC002023
:101E800070BD012070470120FAE70120F8E701202A
:101E9000F6E700BF003C024000380240E8AA000814
:101EA0000800002004000020014B1868704700BFA4
:101EB0000800002008B5FFF7F7FF044B9B68C3F349
:101EC0008223034AD35CD84008BD00BF00380240DB
:101ED000F8AA000808B5FFF7E7FF044B9B68C3F3B7
:101EE0004233034AD35CD84008BD00BF00380240EB
:101EF000F8AA0008F0B583B00446066816F001069B
:101F00000DD0A74B9A6822F400029A609A68416B40
:101F10000A439A60436B002B00F039810026256844
:101F200015F4002511D09E4AD2F88C3023F44013CA
:101F3000E16B0B43C2F88C30E36BB3F5801F00F00C
:101F40002881002B00F027810025236813F4801FCF
:101F50000FD0934AD2F88C3023F44003216C0B430A
:101F6000C2F88C30236CB3F5800F00F0168103B9F2
:101F70000125236813F0807F00D0012613F0200F85
:101F800040F01081236813F0100F0CD0844BD3F86D
:101F90008C2022F08072C3F88C20D3F88C20A16BA7
:101FA0000A43C3F88C20236813F4804F08D07C4A7E
:101FB000D2F8903023F44033616E0B43C2F8903076
:101FC000236813F4004F08D0754AD2F8903023F4F8
:101FD0004023A16E0B43C2F89030236813F4803F76
:101FE00008D06F4AD2F8903023F44013E16E0B43CF
:101FF000C2F89030236813F4003F08D0684AD2F842
:10200000903023F44003216F0B43C2F890302368D3
:1020100013F0400F08D0624AD2F8903023F0030347
:10202000616C0B43C2F89030236813F0800F08D026
:102030005B4AD2F8903023F00C03A16C0B43C2F83A
:102040009030236813F4807F08D0554AD2F890303E
:1020500023F03003E16C0B43C2F89030236813F493
:10206000007F08D04E4AD2F8903023F0C003216D93
:102070000B43C2F89030236813F4806F08D0484AAD
:10208000D2F8903023F44073616D0B43C2F8903066
:10209000236813F4006F08D0414AD2F8903023F43B
:1020A0004063A16D0B43C2F89030236813F4805F46
:1020B00008D03B4AD2F8903023F44053E16D0B43F3
:1020C000C2F89030236813F4005F08D0344AD2F885
:1020D000903023F44043216E0B43C2F890302368C4
:1020E00013F4800F08D02E4AD2F8903023F080638A
:1020F000A16F0B43C2F89030236813F4001F0DD07A
:10210000274AD2F8903023F00063E16F0B43C2F806
:102110009030E36FB3F1006F00F0AA80236813F0F2
:10212000080F00D0012513F4802F08D01C4AD2F8E4
:10213000903023F04073616F0B43C2F890302368F6
:1021400013F4000F09D0164AD2F8903023F08053D0
:10215000D4F880100B43C2F8903026B9236813F0EE
:10216000007F00F005810E4A136823F0806313603E
:1021700000F03AFB06460A4B1B6813F0006F79D05B
:1021800000F032FB801B6428F5D90320F3E0012620
:10219000C5E60126D5E60125D7E60126E7E600BF1C
:1021A000003802407F4B1A6C42F080521A641B6C5C
:1021B00003F080530193019B7B4A136843F48073BF
:1021C000136000F011FB0746774B1B6813F4807F08
:1021D00006D100F009FBC01B6428F5D90320CAE032
:1021E000704B1B6F13F4407315D0226B02F44072D6
:1021F0009A4210D06B4B1A6F22F44072196F41F45F
:1022000080311967196F21F4803119671A671B6FC4
:1022100013F0010F12D1236B03F44072B2F5407F2B
:102220001DD0604A936823F4F81393605D490B6FE7
:10223000226BC2F30B0213430B67A3E600F0D4FA40
:102240000746584B1B6F13F0020FE4D100F0CCFA95
:10225000C01B41F288339842F3D903208BE05148E8
:10226000826822F4F812514919400A438260DDE77E
:10227000012553E7236813F0010F13D0636B8BB96B
:10228000484AD2F88430D2F88410606803F44033AE
:1022900043EA801301F070610B43A16843EA0173C4
:1022A000C2F88430236813F4002F03D0E26BB2F538
:1022B000801F06D013F4801F1ED0236CB3F5800F4F
:1022C0001AD1384AD2F88430D2F88410606803F406
:1022D000403343EA8013E06843EA006301F0E041E1
:1022E0000B43C2F88430D2F88C3023F01F03616AAC
:1022F00001390B43C2F88C30236813F0807F11D072
:10230000284AD2F88400D2F88410666823691B0436
:1023100043EA861300F07060034301F0E0410B4391
:10232000C2F88430236813F0007F0DD062682369FF
:102330001B0443EA8213E26843EA0263A26843EAA9
:102340000273184AC2F88430164A136843F0806357
:10235000136000F049FA0646124B1B6813F0006F39
:1023600006D100F041FA801B6428F5D9032002E071
:10237000012D02D0002003B0F0BD0A4A136823F0FB
:102380008053136000F030FA0546064B1B6813F0CB
:10239000005F0DD000F028FA401B6428F5D9032017
:1023A000E9E700BF0038024000700040FFFCFF0F6B
:1023B000236813F4002F01D0E26B22B113F4801FC5
:1023C0001DD0236CDBB9354AD2F88830D2F888109A
:1023D000606903F4403343EA8013A06943EA006371
:1023E00001F0E0410B43C2F88830D2F88C3023F47E
:1023F000F853A16A013943EA0123C2F88C302368FB
:1024000013F4001F03D0E36FB3F1006F31D02368E2
:1024100013F0080F19D0214AD2F88810D2F888306A
:10242000606903F4403343EA801301F070610B43A9
:10243000E16943EA0173C2F88830D2F88C3023F4A2
:102440004033E16A0B43C2F88C30144A136843F0FE
:102450008053136000F0C8F90446104B1B6813F05A
:10246000005F19D100F0C0F9001B6428F5D90320E2
:1024700081E70A4AD2F88800D2F888106569236A91
:102480001B0443EA851300F07060034301F0E04150
:102490000B43C2F88830BAE700206CE700380240EE
:1024A00000230F2B00F2EF8070B582B061E08568E9
:1024B0005E000324B44025EA0405CC68B4402C43F4
:1024C0008460456825EA02054C68C4F300129A400E
:1024D0002A4342605BE0DC08083450F8246003F0D3
:1024E000070295000F22AA4026EA020E0A69AA40B6
:1024F00042EA0E0240F824205DE0092200E00022BA
:1025000002FA0EF22A4302345F4D45F824205F4A56
:1025100094686FEA0C0224EA0C054E6816F4801FDA
:1025200001D04CEA0405594CA560E46802EA0405B0
:102530004E6816F4001F01D04CEA0405534CE560C8
:10254000646802EA04054E6816F4003F01D04CEAC4
:1025500004054E4C6560246822404D6815F4803FA8
:1025600001D04CEA0402494C226001330F2B00F2E7
:10257000888001229A400C6804EA020C32EA0404C2
:10258000F3D14C6804F00304013C012C8FD94A6854
:1025900002F00302032A09D0C4685D000322AA40A6
:1025A00024EA02048A68AA402243C2604A6802F010
:1025B0000302022A8FD004684FEA430E032202FA74
:1025C0000EF224EA02044A6802F0030202FA0EF252
:1025D000224302604A6812F4403FC6D02C4A546C31
:1025E00044F480445464526C02F480420192019A93
:1025F0009C08A51C244A52F8255003F003024FEA18
:10260000820E0F2202FA0EF225EA0205214A9042BA
:102610003FF475AF02F58062904222D002F58062ED
:10262000904220D002F5806290421ED002F5806276
:1026300090421CD002F5806290421AD002F580626E
:10264000904218D002F58062904216D002F5806266
:10265000904214D002F5806290423FF44EAF0A22BD
:102660004EE701224CE702224AE7032248E7042210
:1026700046E7052244E7062242E7072240E7082210
:102680003EE702B070BD704700380140003C014099
:1026900000380240000002400AB18161704709041D
:1026A00081617047024A136843F480731360704776
:1026B000007000400649CB6823F4E0631B041B0C48
:1026C000000200F4E0600343024A1A43CA60704704
:1026D00000ED00E00000FA0500B5174BDB68C3F31E
:1026E0000223C3F1070CBCF1040F28BF4FF0040C08
:1026F00003F1040EBEF1060F14D9033B4FF0FF3E69
:102700000EFA0CFC21EA0C0199400EFA03F322EABE
:1027100003031943002807DB0901C9B2074B195409
:102720005DF804FB0023E9E700F00F000901C9B2DE
:10273000034B1954F4E700BF00ED00E000E400E0B3
:1027400014ED00E00138B0F1807F0BD24FF0E023B0
:102750005861054AF02182F8231000209861072271
:102760001A6170470120704700ED00E010B5044683
:102770000E4B18784FF47A73B3FBF0F30C4A1068E1
:10278000B0FBF3F0FFF7DEFF68B90F2C01D9012091
:102790000AE0002221464FF0FF30FFF79DFF054B76
:1027A0001C60002000E0012010BD00BF00000020E0
:1027B000080000200400002008B50320FFF77AFF7E
:1027C0000020FFF7D3FFFEF7A9F8002008BD0000A6
:1027D000034A1168034B1B780B441360704700BF1A
:1027E0005036002000000020014B1868704700BFE1
:1027F0005036002038B50446FFF7F6FF0546B4F121
:10280000FF3F02D0044B1B781C44FFF7EDFF401B39
:10281000A042FAD338BD00BF0000002010B5044626
:1028200083680269134342691343C2691343016811
:102830000868934A024013430B602268536823F4EC
:102840004053E1680B435360A269236A1A4321682D
:102850008B6823F4306313438B602368894A934267
:1028600019D0894A934229D0884A93423ED0884A57
:10287000934262D0874A934271D0874A934200F0D4
:102880008380864A934200F09480854A934200F008
:10289000A58010233AE0834BD3F8903003F0030374
:1028A000032B09D8DFE803F00204AE0601232DE074
:1028B00004232BE0082329E0102327E0794BD3F8E9
:1028C000903003F00C030C2B0ED8DFE803F0070D5B
:1028D0000D0D090D0D0D9D0D0D0D0B00002315E0C7
:1028E000042313E0082311E010230FE06D4BD3F80D
:1028F000903003F03003202B00F0888019D8002B93
:1029000000F08680102B40F085800423E069B0F54C
:10291000004F00F0AB80082B00F20C81DFE813F0D1
:10292000E800FB00E6000A01FE000A010A010A01B4
:102930000101302B70D10823E8E75A4BD3F89030CF
:1029400003F0C003802B69D005D8002B68D0402B42
:1029500068D10423DAE7C02B66D10823D6E7514BB0
:10296000D3F8903003F44073B3F5007F5ED006D8FF
:10297000002B5DD0B3F5807F5CD10423C6E7B3F5AF
:10298000407F59D10823C1E7464BD3F8903003F478
:102990004063B3F5006F51D006D8002B50D0B3F58B
:1029A000806F4FD10423B1E7B3F5406F4CD10823BA
:1029B000ACE73C4BD3F8903003F44053B3F5005FE1
:1029C00044D006D8002B43D0B3F5805F42D1042316
:1029D0009CE7B3F5405F3FD1082397E7314BD3F82D
:1029E000903003F44043B3F5004F37D005D8BBB364
:1029F000B3F5804F36D1042388E7B3F5404F33D188
:102A0000082383E7022381E702237FE702237DE790
:102A100000237BE7102379E7102377E7022375E78C
:102A2000002373E7102371E710236FE702236DE79C
:102A300000236BE7102369E7102367E7022365E7AC
:102A4000012363E7102361E710235FE702235DE7BB
:102A500000235BE7102359E7102357E7022355E7CC
:102A6000002353E7102351E710234FE7082B5BD8CF
:102A7000DFE803F01A343A5A375A5A5A1E0000BF98
:102A8000F369FFEF0010014000440040004800409F
:102A9000004C00400050004000140140007800400D
:102AA000007C004000380240FFF704FA00283DD0C7
:102AB0006268530803EB4000B0FBF2F0A0F1100293
:102AC0004FF6EF739A4233D883B223F00F03C0F36B
:102AD000420018432368D860002030E0FFF7FAF97D
:102AE000E4E7FFF7C1F8E1E71748E1E7164802E03D
:102AF000FFF7E0F900B3636800EB5300B0FBF3F0BD
:102B0000A0F110024FF6EF739A4217D8236880B2F3
:102B1000D860002013E0FFF7DDF9EBE7FFF7A4F83A
:102B2000E8E74FF40040E6E7012008E0002006E077
:102B3000012004E0012002E0002000E00120002349
:102B40006366A36610BD00BF0024F400436A13F05F
:102B5000010F06D00268536823F40033816A0B43E7
:102B60005360436A13F0020F06D00268536823F4DF
:102B70008033C16A0B435360436A13F0040F06D0DD
:102B80000268536823F48023016B0B435360436A4C
:102B900013F0080F06D00268536823F40043416B1A
:102BA0000B435360436A13F0100F06D0026893681A
:102BB00023F48053816B0B439360436A13F0200F1F
:102BC00006D00268936823F40053C16B0B439360F3
:102BD000436A13F0400F0AD00268536823F480134D
:102BE000016C0B435360036CB3F5801F0BD0436A39
:102BF00013F0800F06D00268536823F40023816C21
:102C00000B43536070470268536823F4C003416C60
:102C10000B435360EBE72DE9F84305460F46164694
:102C20009946DDF820802C68E46937EA04030CBF7C
:102C30004FF0010C4FF0000CB44553D1B8F1FF3FF9
:102C4000F1D0FFF7D1FDA0EB090040452DD8B8F138
:102C5000000F2AD02B681A6812F0040FE3D0DA694B
:102C600012F4006FDFD04FF400621A622A6852E853
:102C7000003F23F4D07342E800310029F6D12A68DE
:102C800002F1080353E8003F23F00103083242E851
:102C900000310029F3D12023AB67EB67C5F8803002
:102CA000002385F8743003201DE02A6852E8003FB5
:102CB00023F4D07342E800310029F6D12A6802F1EA
:102CC000080353E8003F23F00103083242E80031D3
:102CD0000029F3D12023AB67EB67002385F874301C
:102CE000032000E00020BDE8F88310B582B0044660
:102CF0000023C0F88030FFF777FD23681B6813F0CE
:102D0000080F08D12023A367E3670020206684F81A
:102D1000740002B010BD6FF07E43009303460022A2
:102D20004FF400112046FFF776FF0028EAD0032079
:102D3000EFE768B310B50446836F03B32423A3679A
:102D40002268136823F0010313602046FFF766FD35
:102D5000012813D0636ABBB92268536823F49043F7
:102D600053602268936823F02A03936022681368F3
:102D700043F0010313602046FFF7B7FF10BD80F852
:102D80007430FDF725FDD9E72046FFF7DFFEE3E7C6
:102D90000120704770B58AB0002800F09780054682
:102DA000046890F8BD333BB3032385F8BD33E36B70
:102DB00013F4807F01D100232B61286800F000F913
:102DC0002C4654F8106BEC460FCCACE80F000FCC3F
:102DD000ACE80F0094E803008CE803002B1D0ECB39
:102DE000304600F0AFF8044658B1022385F8BD33F1
:102DF000012420460AB070BD80F8BC33FDF73AFDCF
:102E0000D2E70021286800F009FA234616E0C3EB58
:102E1000C30205EB8202012182F83D1082F83C30AA
:102E2000A2F84230002182F83F1051649164C3EB54
:102E3000C30205EB820211650133DBB269688B4284
:102E4000E5D316E0C4EBC40305EB8303002283F84B
:102E5000FD2183F8FC4183F8FF21C3F80422C3F865
:102E60000822C4EBC40305EB8303C3F8102201342A
:102E7000E4B2A142E6D82C4654F8106BEC460FCCD5
:102E8000ACE80F000FCCACE80F0094E803008CE82E
:102E900003002B1D0ECB304600F0EAF8044660B963
:102EA000002385F83830012385F8BD336B6A012B88
:102EB00008D0286800F0A0F99BE7022385F8BD330D
:102EC000012496E7284600F003F8F2E7012490E792
:102ED000034602680121C0F8FC13002083F8F403C4
:102EE000936943F000639361516D024B0B4353654B
:102EF000704700BF0300001082B000230193019BC4
:102F0000013301930E4A934214D80369002BF6DA79
:102F100000230193036943F001030361019B013323
:102F20000193074A934208D8036913F0010FF5D1C2
:102F3000002000E0032002B070470320FBE700BF41
:102F4000400D030084B010B5044603A880E80E00CD
:102F5000089B012B1DD1A36B23F48033A363E2688C
:102F6000164B1340E360E36823F44013E3600F9BC8
:102F7000012B09D02046FFF7BFFF069B012B14D081
:102F8000BDE8104004B07047E36843F48013E36089
:102F9000F0E7E36843F04003E3602046FFF7ACFF4F
:102FA000A36B43F48033A363E7E7A36843F006030E
:102FB000A360A36843F02003A360E1E7BFFFBDFF68
:102FC000836823F0010383600020704782B00023F0
:102FD0000193019B013301930E4A934214D8036974
:102FE000002BF6DA00230193890141F020010161F1
:102FF000019B01330193074A934208D8036913F0F8
:10300000200FF5D1002000E0032002B0704703201C
:10301000FBE700BF400D030082B000230193019B3A
:10302000013301930D4A934212D80369002BF6DA5B
:103030000023019310230361019B01330193074A8D
:10304000934208D8036913F0100FF5D1002000E077
:10305000032002B070470320FBE700BF400D0300D0
:10306000D0F800381943C0F800180020704700005D
:1030700084B02DE9F041044607A880E80E00002343
:1030800006E003F1400204EB8202002151600133AB
:103090000E2BF6D9119F27BBD4F8043843F0020356
:1030A000C4F80438A36B23F40013A363236843F02C
:1030B00040032360236843F0800323600023C4F8A7
:1030C000003E04F50065D4F80038C4F800380C9BC5
:1030D000012B10D1099B4BB900212046FFF7C0FFFF
:1030E0000DE0A36B43F40013A363E7E7012120463F
:1030F000FFF7B6FF03E003212046FFF7B1FF1021E1
:103100002046FFF763FF804608B14FF001082046D4
:10311000FFF782FF08B14FF0010800232B616B61BC
:10312000EB610AE0C3B94FF00060C2F80009002269
:103130000A614FF67F328A6001330799994210D9AC
:1031400004EB431202F51061D2F800090028E9DB14
:103150000020C2F80009EAE74FF09040C2F80009E9
:10316000E5E700230AE0C3B14FF0904CC2F800CB72
:10317000002202614FF67F3282600133994211D9F9
:1031800004EB431202F53060D2F8006B002EEADB4C
:103190004FF0000CC2F800CBEAE74FF0006CC2F829
:1031A00000CBE5E72B6923F480732B610023A36137
:1031B0006FF0804363610A9B1BB9A36943F010035E
:1031C000A361A2690A4B1343A3610D9B1BB1A369C1
:1031D00043F00803A361012F04D04046BDE8F0414D
:1031E00004B07047A269034B1343A361F5E700BF26
:1031F00000383C8004000040D0F8003E23F0030378
:10320000C0F8003ED0F8043843F00203C0F8043898
:1032100000207047406900F00100704738B505464E
:10322000C36823F0C043C360012913D019BBC3682E
:1032300043F08043C36000240120FFF7DBFA013430
:103240002846FFF7E7FF08B1312CF5D9322C14D00E
:10325000002038BDC36843F00053C3600024012040
:10326000FFF7C8FA01342846FFF7D4FF0128EDD054
:10327000312CF4D9EAE70120EBE70120E9E700006F
:10328000034AD2F8883043F47003C2F8883070479C
:1032900000ED00E070B5044643890E2B1CD90D46A5
:1032A000C37B1BB991F830300133C37360688689E2
:1032B000037813F0010F0AD0012B12D006221E4909
:1032C00006F016FB18B9637B43F008036373082EFE
:1032D00012D0B6F5C16F1FD0204600F0F5FA0020DD
:1032E00070BD4378002BF2D183785E2BEFD1637BE6
:1032F00043F010036373EAE795F82D3013F0080FDD
:10330000EAD00E21204600F099FA0028E4D129469F
:10331000204605F057FBE2E795F82D3013F0080F33
:10332000DAD00E21204600F089FA0028D4D12946AF
:10333000204605F0C5FED2E768AB00082DE9F04154
:1033400005460C4616461F46BDF8180001F06CFDF8
:1033500080460E21204600F06CFAE8B96168A1F8B9
:103360000C803B680B60BB888B803368C1F80630EB
:10337000B3884B8195F82C30062B05D1AB692146DB
:1033800028469847BDE8F081054B4FF499720549EE
:10339000054806F0D3FAF1E76FF00100F2E700BF4D
:1033A00000AB000834AB0008C0AA00080B688268B4
:1033B000934205D011B18360012070470023FAE7E2
:1033C000002070470B68C268934205D011B1C360FA
:1033D000012070470023FAE7002070476FF00B00D0
:1033E000704738B504460D4601F08CF82946204652
:1033F00001F04AFE38BD000038B50C46054670B1F4
:1034000095F82D3003F00502052A07D114F0010FBD
:1034100004D06A6812B113F0080F08D138BD064B0A
:1034200040F26D320549064806F088FAE8E7291DA2
:10343000284605F0A1FEF1E778AB0008A8AB00082C
:10344000C0AA000870B582B0044615460E4639B1D0
:1034500075B1326863689A4212D1002002B070BD23
:10346000104B40F2CB121049104806F067FAEFE714
:103470000C4B4FF4E6720C490C4806F05FFAE8E793
:1034800001922B6001A92846FFF7ABFF3EB13368DC
:10349000636001212046FFF7AFFF0120DEE7002334
:1034A000F6E700BF78AB0008CCAB0008C0AA000864
:1034B000704700002DE9F04182B0044616461D46D3
:1034C0000F46D9B1E6B1EDB10FB13B68E3B901AA3E
:1034D00039462046FFF7B6FF4FF00108002231467B
:1034E0002046FFF763FF002229462046FFF76AFFC8
:1034F000B8F1000F0BD002B0BDE8F081074FE1E753
:10350000064EE0E7054DDFE74FF00008E6E701AAC9
:1035100039462046FFF796FFEDE700BF78C8000860
:1035200070B5059C064610B3002C29D0002930D078
:10353000002A30D0002B30D000207060B060F060E6
:10354000364D7561B08486F82D00F06104983062C4
:103550003348007886F83000069830613046FFF72F
:10356000A9FF3046A04700283ED0002050E02D4B58
:1035700040F227122C492D4806F0E0F9304647E08A
:10358000284B4FF494722A49284806F0D7F90020B6
:103590003EE02849CCE7274ACCE7264BCCE700237E
:1035A00086F8303024E01F4B40F28B1222491F482E
:1035B00006F0C4F909E094F8302096F830309A42C9
:1035C0000ED024687CB1B442EDD00135FF2DF2DD80
:1035D000144B40F28D121949144806F0AFF9EAE78E
:1035E000013386F830303CB196F83030FF2BD6D01E
:1035F000134B1C680025E5E796F83030FE2B08D009
:103600000133074A13700E4B1A6832601E60304651
:1036100070BD034B00221A70F5E700BFDD330008D0
:103620005C36002078AB0008DCAB0008C0AA0008BC
:10363000F8AB000878C800081CAC000830AC0008E3
:1036400058360020014B1860704700BF54360020E8
:1036500008B528B190F82D3013F0010F08D008BD3F
:10366000074B4FF454720749074806F067F9F6E72D
:1036700043F0010380F82D300321FFF7BDFEEEE794
:1036800078AB000860AC0008C0AA000808B560B1BB
:1036900090F82D3013F0010F06D003F0FE0380F8F0
:1036A0002D3013F0080F08D108BD054B40F29B32B6
:1036B0000449054806F042F9F6E705F0E3FCF3E7B4
:1036C00078AB00087CAC0008C0AA000800B1C1615A
:1036D00070470000024658B1064B186838B190F8A0
:1036E00030300133DBB2934203D00068F6E7704715
:1036F0000020704758360020014B01221A70704795
:103700005D36002010B400240460416002814381D2
:103710009DF8043003739DF80830437301238373CD
:10372000C4735DF8044B704770B50C4616460546E9
:10373000C8B1002D18BFB4F5803F24D22CB3A2B27B
:103740002B8913449BB2934221D395F90C10002985
:1037500011DBF6B169680C1B6C6069890A446A81E7
:103760002B81002010E00C4B40F2DF120B490C487B
:1037700006F0E4F8DDE769680C1B05F11001A142D1
:10378000EAD9012000E0012070BD0020FCE7012003
:10379000FAE70120F8E700BF9CAC0008CCAC0008B9
:1037A000C0AA0008F0B583B006460D461446412A6B
:1037B00018BF012A0FD1072001F0E8FC074638B1F5
:1037C0000023019300942B462A463146FFF79AFFC7
:1037D000384603B0F0BD044B4FF4A57203490448CA
:1037E00006F0ACF8E7E700BF9CAC0008D8AC0008D6
:1037F000C0AA000830B583B08E461C46069900F179
:10380000030C2CF0030C0EEB0C00BDF81C3098429E
:103810000DD801B1614425460223019300927346FD
:1038200072462046FFF76EFF284603B030BD0025E4
:10383000FAE708B50022FFF777FF08BD38B50C4658
:10384000054698B1002D18BFB4F5803F1FD204B3D0
:10385000A2B26B89934211D36968214469609B1AB3
:103860006B812B899A1A2A81002038BD0A4B40F2BD
:103870004B220A490A4806F061F8E3E7064B40F29A
:1038800055220849064806F059F80120EDE70120C5
:10389000EBE70020E9E700BF9CAC0008CCAC0008D7
:1038A000C0AA0008ECAC000808B5002902DBFFF74D
:1038B0003BFF08BD4942FFF7C1FFFAE708B5012207
:1038C000FFF7F2FF08BD000070B510B104460025F7
:1038D00017E0284B4FF437722749284806F02EF896
:1038E0000025284670BD234B40F2F122244923488D
:1038F00006F024F80AE02369204698470135EDB226
:103900003446002CEDD0A37B002BECD0A37B013BF5
:10391000DBB2A373002BE4D12668237B03F00F03F3
:10392000627B12F0020F0AD02369002BE3D1114B06
:1039300040F2FF221349114806F000F8DBE7022BA2
:1039400006D0012B09D06BB9204601F02FFDD5E739
:103950002146082001F034FCD0E72146072001F081
:103960002FFCCBE7034B40F20F320749034805F029
:10397000E5FFC3E79CAC0008CCAC0008C0AA000877
:103980000CAD000824AD000848AD00082DE9F04753
:1039900082B00E46904685B2B2F5C17F46D004464D
:1039A0000ED8012A02D0412A40F084804246314696
:1039B0000020FFF7F7FE8146484602B0BDE8F087D9
:1039C000B2F5207F76D1033525F00305ADB2CA1CD0
:1039D00093B223F003031D44ADB205F1100080B291
:1039E00022F0030295426FD3824270D801F0FAFDB3
:1039F00081460028E0D004F1100101440331002386
:103A00000193CDF800803346324621F00301FFF7E1
:103A100079FED9F8043013F0030FCDD02D4B4FF4BD
:103A200091722D492D4805F089FFC5E70027B94659
:103A300013E0FFF761FEB9F1000F02D04846FFF72F
:103A400043FFB946B8E7B9F1000F31D0CAF80070AA
:103A5000361BB6B20025002EAED0BA46082001F0C3
:103A600095FB07460028E4D0EC1C24F00304A4B224
:103A7000C4F51474A4B2B44228BF344605F1100151
:103A80000144033100230193CDF8008023463246E0
:103A900021F00301FFF736FE7B6813F0030FD2D04D
:103AA0000C4B4FF480720E490C4805F047FFCAE7F3
:103AB000B946CDE7074B40F227120A49074805F0FF
:103AC0003DFF4FF0000977E74FF0000974E74FF032
:103AD000000971E79CAC0008C0AD0008C0AA00084E
:103AE0005CAD0008ECAD0008F8B50E460446B8B170
:103AF0002789B7422ED935466389AB4218D2EB1AD3
:103B00009DB22389F21B134423812468002CF3D136
:103B10001A4B40F2AF121A491A4805F00FFFEBE7B3
:103B2000164B4FF4CC721849164805F007FFDFE733
:103B3000227B12F00F0F05D1AB4203D0637B13F051
:103B4000020F08D065812581206808B1FFF7BCFE0F
:103B500000232360F8BD63681B1BE91889B2204667
:103B600001F07EFC04460028ECD1044B40F2BD126B
:103B70000649044805F0E2FEE4E700BF9CAC0008FB
:103B800020AE0008C0AA000808AE000838AE000841
:103B90000346002002E0013080B21B68002BFAD1FE
:103BA0007047000070B108B5837B0133DBB28373CB
:103BB00003B108BD044B40F242320449044805F009
:103BC000BDFEF6E7704700BF9CAC000854AE00088D
:103BD000C0AA000838B504460D46002918BF0028C1
:103BE0000CD1154B40F259321449154805F0A6FE88
:103BF00019E0238929890B44238114462268002A6D
:103C0000F7D1228963899A420ED1236833B10A4BD6
:103C100040F263320B490A4805F090FE23892A8955
:103C200013442381256038BD034B40F262320649BC
:103C3000034805F083FEE8E79CAC000868AE000886
:103C4000C0AA0008D0AE0008A0AE00082DE9F041DF
:103C5000002918BF002808D005460C4602890B89A8
:103C60009A4202D30027B8463CE03B4B40F2C932AF
:103C70003A493B4805F062FE6FF00F006AE0364BB0
:103C800040F2D9323749364805F058FE3EE0324B13
:103C900040F2DA323449324805F050FE39E02D68FE
:103CA000B5FA85F35B09002C08BF002313B94FF068
:103CB000000836E0284B4FF479722C49284805F06B
:103CC0003DFE6FF00F0045E023687BB3224B40F2CE
:103CD000E9322749224805F031FE6FF0050039E04E
:103CE000002C36D06E89A6EB08066389DB1B9E424A
:103CF00000D31E466868616832463944404405F086
:103D000007FEB04437446B894345B8D36389BB424F
:103D1000BDD36389BB4201D8246800276B89434522
:103D2000BDD01CB1628923899A42CDD0002DD7D055
:103D30006A892B899A42D3D12B68002BD0D0064BAD
:103D400040F2EE320A49064805F0F8FD6FF0050032
:103D500000E00020BDE8F0819CAC0008E0AE000867
:103D6000C0AA000810AF000828AF000844AF000840
:103D700054AF00082DE9F84330B188469146054616
:103D800069B100273E462AE01B4B40F20A421B491C
:103D90001B4805F0D3FD00273846BDE8F883164BD5
:103DA00040F20B421749164805F0C8FD0027F3E71B
:103DB0006C89E41AA4B2A14500D24C466968224637
:103DC000194408EB060005F0A3FD2744BFB22644C2
:103DD000B6B2A9EB04041FFA84F900232D68B9F1E7
:103DE000000F18BF002DD7D0002BE1D06989994270
:103DF000DED85B1A9BB2F1E79CAC000880AF0008EC
:103E0000C0AA0008A0AF000838B514460A462189A8
:103E1000FFF7BCFD054618B12146FFF717FF08B9AB
:103E2000284638BD034B40F224520349034805F0AD
:103E300085FDF5E79CAC0008C4AF0008C0AA0008E7
:103E400038B504460D4639B9074BFF2207490848E3
:103E500005F074FD00E0E4682CB1E36FAB42FAD1E9
:103E60000023E367F7E738BDD8AF000804B00008C7
:103E7000C0AA000838B5054620B12B7D012B09D119
:103E8000012417E00D4B40F211120D490D4805F0C9
:103E900055FDF2E7094B4FF489720B49094805F0CB
:103EA0004DFDEDE7094B53F8243029461868FFF71C
:103EB000C7FF0134032CF5D938BD00BFD8AF0008C7
:103EC0002CB00008C0AA000838B000080CB50008E3
:103ED00010B50446037D012B04D02146022001F0D9
:103EE0006FF910BD034BDF220349044805F026FD9E
:103EF000F3E700BFD8AF000850B00008C0AA000820
:103F000038B5054648B12B7D042B1FD0072B26D092
:103F1000032B0AD00024204638BD174B4FF4CE7235
:103F20001649174805F00AFDEDE7284603F03EFC68
:103F3000044608B905232B75D4B1B4F1FF3FEAD18B
:103F40006B8B43F008036B830024E4E7284603F0FF
:103F50002DFC04460028EFD105232B75ECE72846FD
:103F600003F024FC04460028E6D109232B75E3E77F
:103F7000284603F099FDCEE7D8AF00082CB0000822
:103F8000C0AA0008094B186878B110B501E02046B6
:103F900054B1C468438B13F0080FF8D023F0080322
:103FA0004383FFF7ADFFF2E710BD70476036002096
:103FB00008B505F0DBFC024B0343024A138008BD41
:103FC00000C0FFFF1000002010B50446037D012B48
:103FD00004D02146012001F0F3F810BD034BD42298
:103FE0000349044805F0AAFCF3E700BFD8AF000876
:103FF0006CB00008C0AA000838B5044690B1656AE4
:10400000218D6818E26AB4F832C0BCF5866F94BF9F
:1040100002EB0C0302F58663C31A002B0ADB6185F1
:10402000801A38BD0E4B40F2A6320E490E4805F0FC
:1040300085FCE4E7AB1A002B03DD00236385002039
:10404000EFE7551BB5F5803F01D26585F7E7044BD7
:1040500040F2B6320549044805F070FCF5E700BFB0
:10406000D8AF000880B00008C0AA0008A4B00008BB
:1040700038B5B0B10C460546037D012B19D02B8D08
:10408000191989B2B1F5066F01D88B4219D94FF4CD
:1040900006632B852846FFF7AFFFB0F5067F12D2E7
:1040A00038BD0D4B40F2CF320C490D4805F046FCAF
:1040B000F6E7094B40F2D2320A49094805F03EFCC6
:1040C000DDE72985E6E76B8B43F002036B83284627
:1040D00003F0EAFCE4E700BFD8AF0008C0B0000876
:1040E000C0AA0008D8B0000850B110B50446406816
:1040F00008B1FFF7E9FB2146032001F061F810BD8C
:10410000704738B110B50468FFF7EEFF2046002C69
:10411000F9D110BD7047000038B5054688B10320BD
:1041200001F034F8044650B128686968AA68EB6861
:1041300020606160A260E3606068FFF733FD2046A5
:1041400038BD044B40F282620349044805F0F6FB97
:10415000E5E700BFD8AF000800B10008C0AA00081A
:1041600008B530B1074B1868074A12681044186048
:1041700008BD064B40F6AF020549064805F0DEFBD8
:10418000F0E700BF0C00002070360020D8AF000818
:104190001CB10008C0AA000838B505460C465AB143
:1041A00044B1A38C33B1282B0ED9283B9BB29D423E
:1041B00028BF1D46284638BD044B40F6C5020449B9
:1041C000044805F0BBFBEBE70023F0E7D8AF00089D
:1041D00038B10008C0AA000810B50446406F18B1F5
:1041E000FFF78FFF0023636710BD000010B508B311
:1041F0000446037D002B18BF0A2B1AD0012B18D0C0
:10420000806F18B1FFF760FB0023A367636F13B1E2
:104210002046FFF7E1FF4FF6FF732386E06EFFF7BE
:1042200070FF206FFFF76DFF0023E3662367A4F89C
:10423000683010BD034B40F651020349034805F0B6
:104240007DFBF6E7D8AF000860B10008C0AA0008FF
:1042500038B505460C4649B185B12B68A34215D047
:10426000CBB1DA68A24214D01346F9E7254B40F6E9
:1042700083022549254805F061FBEDE7214B40F617
:1042800084022349214805F059FBE6E7DB682B60EF
:1042900001E0E268DA600023E3602046FFF7A6FF52
:1042A000237D0A2B18BF012B03D0638B13F0010F62
:1042B00021D1237D012B1AD0E36E33B1114B40F68F
:1042C00093021449114805F039FB236F33B10D4BAC
:1042D00040F6940210490D4805F030FB636F33B18E
:1042E000084B40F696020D49084805F027FB0023CD
:1042F0002375E38238BD43F002036383204603F055
:10430000D3FBD6E7D8AF00087CB10008C0AA0008EC
:1043100098B10008B8B10008D0B10008ECB10008AD
:104320002DE9F04784B0F8B10D460446037D012B1A
:1043300022D0237D0A2B27D0D4F85080D4F82490A3
:10434000D4F890602769002B47D1B4F816A0BAF1D1
:10435000000F4CD02D4B1B68A3421DD013B3DA685D
:10436000A2421DD01346F9E7294B40F23D222949CC
:10437000294805F0E3FA2DE0254B4FF41072274948
:10438000254805F0DBFAD4E721462548FFF760FF12
:104390002046FFF719FE1DE0DA681C4B1A6001E0A9
:1043A000E268DA600025E560AA46206F08B1FFF7F1
:1043B000A8FEE06E08B1FFF7A4FE606F08B1FFF73A
:1043C000A0FEB5B92046FFF7FFFD1EB16FF00C014E
:1043D0003846B04704B0BDE8F087B4F816A02146CF
:1043E0001048FFF735FF104B01221A70DDE700255A
:1043F000DBE7231D228B0292CDF804A00093234615
:104400004A464146204603F0CDFADBE768360020F5
:10441000D8AF000804B20008C0AA000820B2000803
:1044200078360020603600206436002008B501216F
:10443000FFF776FF08BD000008B50A4B1B684FF078
:10444000000C604600E0DB6843B1196A064A126856
:10445000521A6245F7D394461846F4E708B1FFF7BD
:10446000E5FF08BD783600207036002010F0800F80
:1044700001D108B970477F2038B50138C2B20F4B5F
:104480001B684FF0000C604607E00D4A1268186A7E
:10449000A2EB000C0A461846DB685BB1597D9142DD
:1044A000F3D3F9D1064C24681D6AA4EB050EE6454A
:1044B000F2D3EAE708B1FFF7B9FF38BD6036002054
:1044C0007036002070B50C46054660B90A4B4FF4B3
:1044D00010620A490A4805F031FA04E0E66820460D
:1044E000FFF7A4FF34462CB122682B689A42F5D01E
:1044F000E468F8E770BD00BFD8AF000854B2000808
:10450000C0AA000800B338B50D460446036803B9D5
:1045100038BD0E4B1968FFF7D5FF0D4B19682046C3
:10452000FFF7D0FF002DF3D02B68002BF0D0094B04
:104530001B6800E0DB68002BEAD019682268914212
:10454000F8D12A681A60F5E7704700BF603600208E
:10455000683600206C36002038B50446A0F1080308
:10456000DBB2012B04D8104B1B680021084608E081
:104570000E4B40F2DD620E490E4805F0DFF9F2E71E
:10458000DB685BB11A7DA242FAD10B4A12681D6A40
:10459000521B8A42F4D311461846F1E710B10021AC
:1045A000FFF7BEFE38BD00BF60360020D8AF000860
:1045B00088B20008C0AA00087036002038B5054649
:1045C000012000F0E3FD044668B354B39C220021AF
:1045D000204605F0ABF965754FF48663A4F86430A6
:1045E0004FF4066262852285FF22E2724FF4067262
:1045F00062860622A4F84020E2874FF6FF722286E8
:104600000122A4F848201A4A12682262194A127834
:10461000A277A4F84A30184BC4F88430174BC4F87A
:104620009430204638BDFFF7ADFCFFF705FF0120B1
:1046300000F0ACFD04460028C7D10920FFF78CFF2D
:10464000012000F0A3FD04460028BED10820FFF79A
:1046500083FF012000F09AFD04460028B5D12846CA
:10466000FFF704FF012000F091FD0446ADE700BF15
:1046700070360020753600200948000800DD6D0006
:1046800030B585B00D46044628B3002D2FD0237DCC
:10469000072B18BF042B2AD1A36F23B3638B13F00E
:1046A000100F2ED0231D228B0292E28A01920093DA
:1046B0002346626A216D204603F074F92046FFF715
:1046C00095FD384B1B68A34223D043B3DA68A2425E
:1046D00023D01346F9E7344B4FF4AF7233493448D3
:1046E00005F02CF9D1E7238DB3F5066FD6D1237DE4
:1046F000012B3FD0022B49D013B32046FFF700FC1B
:1047000036E0294B4FF4B2722A49294805F016F9D0
:10471000C8E7DA68234B1A6001E0E268DA60002338
:10472000E360254B01221A70244B1B68A34204D07E
:104730002046FFF749FC00201AE002F099FCFAE756
:10474000E38A8BB11E4B1B68A34205D053B1DA68D4
:10475000A24205D01346F9E7DA68194B1A6001E066
:10476000E268DA600023E3602046FFF72DFC0020BA
:1047700005B030BD2046FFF77DFB21461148FFF70D
:1047800067FD2046FFF7A4FB0020F1E7214605481E
:10479000FFF75EFD084B01221A702046FFF714FC5C
:1047A0000020E5E760360020D8AF000898B2000886
:1047B000C0AA0008B8B20008643600200C6C0020C3
:1047C000683600206C36002008B560B10346027DD3
:1047D000012A03D0428B42F0100242830121184685
:1047E000FFF74EFF08BD054B4FF4F472044905482E
:1047F00005F0A4F86FF00F00F4E700BFD8AF000891
:10480000D4B20008C0AA000810B551B11446084639
:104810008AB11189FFF72CFC2046FFF755F80020DC
:1048200010BD084B4FF4D3620749084805F086F8DD
:104830006FF00F00F4E70BB10020F1E7FFF7C4FFC2
:10484000EEE700BFD8AF0008ECB20008C0AA00082D
:10485000F8B518B30446866F777B00238367D0F8DA
:1048600084502DB3324601460069A84705463DBB3A
:1048700017F0200F2AD0238DB3F5066F01D0013336
:104880002385D4F884600EB300231A46214620699C
:10489000B04710F10D0F19D1054617E00C4B40F24F
:1048A00009620C490C4805F049F86FF00F050DE05E
:1048B0000023324601461846FFF7A6FF0546D6E715
:1048C00015F10D0F02D0A6676FF004052846F8BD5C
:1048D000D8AF000808B30008C0AA000870B51C4A89
:1048E0001378013313701B4B1C6813E043F0020371
:1048F0006383204603F0D8F8638B23F003036383BC
:1049000013E023F0080363832046FFF7F9FA10E071
:10491000E5682C46DCB1A27F0D4B1B789A42F7D09C
:10492000A377638B13F0010FE0D1638B13F0080FB3
:10493000E7D1E568A36F002BEBD0074E002333705F
:104940002046FFF785FF3378002BE2D0CBE770BD20
:104950007536002060360020643600202DE9F041D5
:1049600084B0994A136801331360984A137801336D
:104970001370974B1C68002592E1964B40F2BE42A3
:104980009549964804F0DAFF90E1924B40F2BF421D
:104990009349924804F0D2FF8CE18E4B4FF4986219
:1049A00090498E4804F0CAFF88E12546E46877E123
:1049B00094F84230052B40F28C8101266EE0854B45
:1049C00040F2D5428849854804F0B8FF98E1204676
:1049D00002F060FD58B1002384F8983094F89930C3
:1049E000062B7CD8013384F89930002656E0204607
:1049F00003F05AF80028EED100264FE0B4F9303029
:104A00009BB247F6FE72934201D801332386B4F974
:104A10003020B4F940309A4240DB204602F0F8FEE4
:104A200020B1236F002B39D1E36EBBB3237D022B62
:104A300014D094F842200C2A28BF0C22B4F93C1060
:104A4000B4F93E3003EBE10368498A5C934047F6D2
:104A5000FE7293421EDC1BB2A4F840300023238672
:104A6000B4F86030B4F84820934228BF13465B087E
:104A7000A4F84A30618E4A0092B2934201D2A4F85F
:104A80004A20A4F848100023A4F86A30204603F016
:104A900061F903E047F6FF73DEE70126237D062B6D
:104AA0001FD0627A12F0080742D0072B18BF042BE0
:104AB0003DD1454B1A68236AD21AD4F894104C4B56
:104AC0000B444C48A0FB0303B2EB531F16D901362D
:104AD000F6B201272CE00126E0E70026DEE70026FB
:104AE000DCE7628B12F0100FDBD0216A364A1268C5
:104AF000521A282AD5D90136F6B2D2E794F89B305B
:104B00003D4800FB03113B4BA3FB0131B2EB511FAE
:104B100001D800270CE0204603F052F900283AD1D2
:104B200094F89B30013384F89B30002700E0002785
:104B3000636F53B1236A244A1268D21AB4F9403021
:104B400003EB4303B2EB430F27D2237D032B28D083
:104B5000092B2FD0002E53D1E668237F0133DBB21F
:104B60002377627F9342C0F0998000232377234A02
:104B70001370D4F88C30002B00F088802146206917
:104B800098471E4B1B78002B7FF4F3AE00287FD094
:104B90002546344684E00027CAE72046FFF71CFB81
:104BA000D3E7216A084A1268521A282AD0D9013656
:104BB000F6B2CDE7226A044B1B689B1AF02BC9D9C9
:104BC0000136F6B2C6E700BF703600207536002009
:104BD00060360020D8AF000830B30008C0AA000833
:104BE0005CB3000888B30008ECB30008FCB400080C
:104BF000B84C0A00D34D6210F8240100643600203E
:104C0000D4F890602046FFF7F1FA1DB36F4B1B6894
:104C1000A34217D0E368EB605FBBD4F81080E7686D
:104C20002046FFF7D1F96A4B00221A701EB16FF0CF
:104C30000C014046B047664B1B78002B7FF499AEC1
:104C40003C462DE0634B40F26D526349634804F0EB
:104C500075FEDFE75D4B1B68A34206D05D4B40F25B
:104C600071525F495D4804F069FEE268574B1A6073
:104C7000D2E7231D626A216D208B0290E08A0190A9
:104C800000932346204602F08DFEC6E7002078E719
:104C9000204602F009FF2546344601E02546344609
:104CA000002C50D0237D002B3FF467AE237D012BD9
:104CB0003FF46BAE237D0A2B3FF46FAEA27F494BCE
:104CC0001B789A423FF471AEA377237D022B3FF409
:104CD0006FAE94F842300B2B3FF6DFAE94F899603C
:104CE000002E3FF48BAE236F33B13A4B40F2D442E7
:104CF0003D493A4804F022FEE36E002B3FF45FAEDC
:104D000094F89A300B2B3FF6E6AE94F89930013BBD
:104D1000364AD25C94F89830934202D2013384F838
:104D2000983094F898309342FFF4D7AEB4F86010FE
:104D300000297FF44CAE204603F070F800283FF4C1
:104D40004AAE0026AAE62A4B1D6807E02A6A294BCC
:104D50001B689B1AF02B0ED82C46ED68002D31D025
:104D60002B7D0A2BF2D01B4B40F2A15222491B484B
:104D700004F0E4FDEAE72846FFF738FA9CB11C4B43
:104D80001B68AB4207D0EB68E360EE682846FFF78C
:104D90001BF93546E2E70F4B40F2AF5217490F4877
:104DA00004F0CCFDEFE7124B1B68AB4206D0094B79
:104DB00040F2B3521249094804F0C0FDEA680C4BB6
:104DC0001A60E2E704B0BDE8F08100BF6036002061
:104DD00064360020D8AF000824B40008C0AA000838
:104DE00050B4000875360020B8B300081CB50008A0
:104DF00078360020703600207CB40008ACB400087F
:104E0000D4B4000808B5FFF769FD064A13780133EA
:104E1000DBB2137013F0010F00D108BDFFF79EFD48
:104E2000FBE700BF74360020030A43EA002080B28B
:104E30007047030203F47F0343EA0063020A02F4AB
:104E40007F42134343EA106070470000F8B50E46F6
:104E500015460746C8B1FEB13C7A3CB11E4B5B68B3
:104E600093F830300133DBB29C4225D1DDB12FB352
:104E70003B682BB3184A5269B2F1FF3F22D0B168A8
:104E800053400B4220D0002017E0144B87221449D6
:104E9000144804F053FDDEE7104B882212491148F4
:104EA00004F04CFDD8E78FB13B688BB10A4A5269D8
:104EB00093420FD0284600E00020F8BD0120FCE717
:104EC0000120FAE70120F8E70120F6E70120F4E7E6
:104ED0000120F2E70120F0E76C65002024B500080E
:104EE00050B50008C0AA000874B5000808B504F061
:104EF0003DFD024B0343024A138008BD00C0FFFF83
:104F0000120000202DE9F04F83B00F468146D0B14A
:104F100007B3B9F80A30072B23D9D9F80440524B0C
:104F20001968586904F072FB80462088FFF77CFFFF
:104F300082466088FFF778FF05464C4B1C684FF0AF
:104F4000000B5E4619E04A4BCF224A494A4804F01A
:104F5000F5FCDDE7464BD0224849474804F0EEFC1B
:104F6000D7E74846FEF7B0FC03B0BDE8F08FA34694
:104F7000A38A534526D02646E468002C2FD0638AA6
:104F8000AB42F8D1424639462046FFF75FFF002882
:104F9000F1D0237C13F0040FEAD1BBF1000FE6D06F
:104FA000B8F1000FE4D0304B5B69B3F1FF3FDFD1C4
:104FB000DBF800207B689A42DAD022689342D7D18E
:104FC000A346D5E763681BB1274A12699342D2D141
:104FD0002EB1E368F360254B1A68E2601C6084B16F
:104FE0008CB108214846FEF729FCA8B91CB3A56975
:104FF000EDB1E069CDF800A0214B4A462146A84713
:10500000B2E75C46ECE77A68174B5B699A42E8D0F6
:105010004846FEF759FCA7E7154B4FF4B8721949FB
:10502000154804F08BFC4846FEF74EFC9CE74846CA
:10503000FEF74AFC98E7B8F1000F05D10A4B5B690F
:1050400003F0F003E02B03D14846FEF73DFC8BE76D
:10505000054B9989083109B24846FEF72FFC032118
:10506000484604F0EBFBEFE76C6500207C3600203F
:1050700024B500089CB50008C0AA0008B4B5000813
:105080007C650020D0B50008B8B102460368A3B122
:1050900099B10B688BB1094B1B686BB110B401E07F
:1050A000DB6833B110681C688442F9D10868186065
:1050B000F6E75DF8044B7047704770477C36002078
:1050C00008B500F053F900F051F8FEF7F1F9FFF7D9
:1050D0000DFFFEF76DFF02F0BFFF08BD10B583683E
:1050E0001C6824B122681A6014F0030F01D1204615
:1050F00010BD044B4FF48C720349044804F01EFCAD
:10510000F5E700BFECB500081CB60008C0AA00080F
:1051100038B505460C4611F0030F05D1AB681B6886
:105120002360AB681C6038BD034B4FF4B672034973
:10513000034804F003FCF1E7ECB5000840B60008B2
:10514000C0AA0008836800221A604368033323F072
:10515000030307E081680968196081680B600188B2
:105160000B44013241889142F4DC704710B50024B1
:1051700006E0054B53F82400FFF7E4FF0134A4B226
:10518000082CF6D910BD00BF08B7000808B50828DC
:1051900005D8074B53F82000FFF7A0FF08BD054BCB
:1051A00040F257120449054804F0C8FB0020F5E717
:1051B00008B70008ECB5000860B60008C0AA0008EF
:1051C00008B5082806D821B1064B53F82000FFF790
:1051D0009FFF08BD044B4FF4D5720449044804F006
:1051E000ADFBF6E708B70008ECB5000880B600088C
:1051F000C0AA0008014B1B6818447047886500204E
:10520000024B1B68C01A80B2704700BF886500203F
:10521000F8B50446FFF7F4FF074625882846FFF750
:10522000E9FF064664882046FFF7E4FFB5F5C86F3E
:1052300010D8B4F5C86F0FD8BC4202D00388BB4267
:105240000CD1094B1B68B3420AD07388BB4209D109
:10525000012000E00020F8BD0020FCE70020FAE774
:105260000120F8E70020F6E78C65002038B50446F9
:10527000354B1B68834240D8344B1B68A34244D94A
:105280002379002B49D12388B3F5C86F4DD82088E6
:10529000FFF7B0FF844216D00379A3B92B4B1B68EC
:1052A000834210D02A4B1B68834246D00388238058
:1052B0000088B0F5C86F06D0FFF79CFF0546204672
:1052C000FFF79EFF68806088FFF794FF05468442E1
:1052D00012D0037983B91E4B1B68A34230D02388B8
:1052E0002B802088B0F5C86F06D0FFF783FF0446F7
:1052F0002846FFF785FF608038BD164B40F2DF126D
:105300001549164804F01AFBB6E7124B4FF4F07239
:105310001349124804F012FBB2E70E4B40F2E112BF
:1053200010490E4804F00AFBADE70A4B4FF4F27245
:105330000D490A4804F002FBA9E7054B1C60B5E7DC
:10534000034B1860CBE700BF886500208C65002008
:10535000846500202CB7000858B70008C0AA0008D0
:1053600070B700088CB70008A8B7000838B50B4C18
:1053700024F003040A4B1C604FF4C8652580002309
:10538000638023712846FFF735FF064B1860012321
:10539000037105804580044B1C6038BD9365002077
:1053A000886500208C65002084650020002844D09A
:1053B00038B5044610F0030F1FD1A0F108051F4BAC
:1053C0001B68AB4221D800F10C031D4A12689342BE
:1053D0001BD810F8043C03B32846FFF719FF20B38D
:1053E000002304F8043C174B1B68AB4201D9154B52
:1053F0001D602846FFF73AFF0EE0134B40F2732280
:105400001249134804F09AFA06E00F4B40F27F224B
:1054100010490F4804F092FA38BD0B4B4FF4237239
:105420000D490B4804F08AFAF6E7074B40F2952243
:105430000A49074804F082FAEEE7704788650020C1
:105440008C650020846500202CB70008D4B70008C4
:10545000C0AA0008F8B7000814B800083CB8000853
:105460002DE9F8430546CC1CA4B224F00304A4B2F1
:105470000B2C00D80C248C422CBF00210121B4F548
:10548000C86F88BF41F00101002940F095804D4B65
:105490001B68AB4203D84C4B1B68AB4206D84B4B46
:1054A00040F2D1224A494B4804F048FA454B1B6868
:1054B000AB4200F28280444B1B68AB427DD9A5F120
:1054C0000800FFF79DFE064635F8088CA8EB00089B
:1054D0001FFA88F8A8F108081FFA88F8444529D867
:1054E00044456DD869D035F8087C3846FFF782FE10
:1054F00081460379002B33D1B7F5C86F22D0B9F8B4
:1055000000703444A4B20834A4B2334B1B684B453A
:1055100020D02046FFF76EFE0023037107804680EF
:1055200025F8084C0088B0F5C86F46D0FFF762FE3A
:10553000448042E0254B4FF439722849254804F055
:10554000FDF9CDE7214B40F2F5222549214804F031
:10555000F5F9D4E72046FFF74DFE1F4B1860D8E75A
:1055600004F11403434528D83444A4B20834A4B247
:10557000B7F5C86F18D02046FFF73CFE164B1B68E6
:10558000834201D9144B18600023037135F8083C9D
:105590000380468025F8084C0088B0F5C86F0CD011
:1055A000FFF728FE448008E0084B40F216320C4911
:1055B000084804F0C3F9DEE700252846BDE8F88373
:1055C0000025FAE7886500208C6500202CB70008CC
:1055D00070B80008C0AA00088465002088B80008D8
:1055E000A8B80008002800F09E802DE9F04103468D
:1055F000C61CB6B226F00306B6B20B2E00D80C2697
:105600009E422CBF00230123B6F5C86F88BF43F02C
:105610000103002B40F08980454B1868FFF7F0FD2F
:1056200005464CE0434B40F287324349434804F07F
:1056300085F962E0012303713D4B1868A0420FD049
:10564000274408373E4B1B689F421FD814F00305C0
:1056500024D15DBB04F1080063E00088FFF7CAFDB8
:1056600003791BB1364A12688242F6D1304A106083
:10567000334A12688242E3D0002BE1D02D4B40F236
:10568000B53230492D4804F059F9D9E7294B40F299
:10569000B9322D49294804F051F9D7E7254B40F29A
:1056A000BB322A49254804F049F9D2E7214B40F2A0
:1056B000BD322749214804F041F9CBE72588A846A7
:1056C0003746C6F5C8639D422AD22846FFF792FDA9
:1056D00004460379002BF1D10388A3EB0803083BB0
:1056E000BB42EBD307F114029342A3D32E44B6B2CC
:1056F0000836B6B2B6F5C86F94D03046FFF77AFDDB
:1057000000230371238803804580268001232371B1
:105710000088B0F5C86F8FD0FFF76CFD46808BE72F
:105720000020BDE8F081002070470020F9E700BFAD
:10573000846500202CB70008A8B80008C0AA00089B
:105740008C650020BCB80008D8B8000808B900086B
:1057500038B900080A4A1388591C1180094A11688F
:1057600019B1094A1288934204D2084A12681344B4
:10577000187D7047DBB2D2B29B1ADBB2C85C7047AF
:10578000106C00201C6C0020186C0020146C002091
:1057900038B50446E8B1224B1B88002B3ED0214B84
:1057A00000221A801F4B1A881D4B1B889A4235D243
:1057B000FFF7D0FF0128F5D0022812D070B3FFF711
:1057C000C9FF01282AD9174B1A88104402381880BB
:1057D000E8E7154B40F27D721449154804F0AEF825
:1057E000D9E7FFF7B7FF042818D10E4B1B88013308
:1057F0000B4A1288934211DAFFF7ACFF85B22D02F3
:10580000ADB2FFF7A7FF80B205436B1E9BB2B3F5A5
:10581000067F01D34FF406756586C3E738BD00BF28
:10582000206C0020106C00205CB900088CB90008C6
:10583000C0AA000810B5044630B1114B1B7813F014
:10584000100F09D1002010BD0E4B40F25A220E4914
:105850000E4804F073F8F0E7638B13F0100F06D1D5
:10586000D4F890301BB16FF00E01206998472146A3
:105870000748FEF7EDFC2046FEF7A6FB0120E2E715
:10588000046C00205CB90008A8B90008C0AA000890
:1058900060360020234B1B7813F0040F41D130B544
:1058A00085B00446A0B11F4B1B7813F0020F29D01E
:1058B0001D4B1A68636AD11A002904DB218D0B4441
:1058C000D31A002B0CDD194B1B8813BB05B030BD60
:1058D000174B40F2EE221749174804F02FF8E2E781
:1058E000164B1968164B114800880D880295498897
:1058F0000191191F0091024412490968204602F0E3
:1059000051F8E3E713F0010FDDD00F4B1B68236262
:10591000D9E7638B43F002036383204602F0C4F8A7
:10592000D4E77047E86B0020086C0020226C002050
:105930005CB90008D0B90008C0AA0008146C0020A7
:1059400080650020E46B002070360020474B1B78F8
:1059500013F0040F40F08880F0B585B0044648B1DC
:10596000424B1B7813F0100F0CD113F0020F1DD116
:1059700005B0F0BD3E4B40F281223E493E4803F067
:10598000DDFFEDE73D4B19683D4B3E4A10883E4A2E
:1059900012680D88029549880191191F00910244EF
:1059A0003A490968204601F0FDFFE1E7607DFEF716
:1059B00005FE0546002849D0354B5A6902601B692F
:1059C0004360E38AC3822D4E33681B88038303231D
:1059D00003752D4F3B6801334362C362FEF7C0FB82
:1059E000A86528656864E8653B68013B6B652369C9
:1059F0002B61EC67637A03F00C036B72237A2B72D2
:105A0000244B1A68EA601D6002F0ECFA224B012276
:105A10001A702846FFF7BCFE3368DB89A5F86030B2
:105A2000A5F862306E8E2C1D204602F075FF0146EF
:105A300022463046FEF7B0FB68861221284601F068
:105A400005FE60B9284602F02FF891E7A369002B04
:105A50008ED04FF0FF3200212069984788E700215F
:105A60002846FEF75DFC83E7704700BFE86B002027
:105A70005CB90008F0B90008C0AA0008146C002046
:105A800080650020226C0020086C0020E46B002060
:105A90006C65002060360020643600202DE9F0415E
:105AA00006460C461F4608E0264B40F25742264960
:105AB000264803F043FF22E04446002C3FD0E36831
:105AC0005868FFF7B6F90546B4F80880E368988986
:105AD000FFF7AAF910F0030F2FD0012080444544AE
